:1080000050BD00207DA800009371010069A8000008
:1080100069A8000069A8000069A8000069A800001C
:10802000000000000000000000000000E9A90000BE
:1080300069A800000000000079A9000069A80000FC
:1080400075AB000075AB000075AB000075AB0000B0
:1080500075AB000075AB000075AB000075AB0000A0
:1080600075AB000075AB000075AB000075AB000090
:1080700075AB000075AB000075AB000075AB000080
:1080800075AB000075AB000075AB000075AB000070
:1080900075AB000075AB000075AB000075AB000060
:1080A00075AB000075AB000075AB000075AB000050
:1080B00075AB000075AB000075AB000075AB000040
:1080C00075AB000075AB000075AB000075AB000030
:1080D00075AB000075AB000075AB000075AB000020
:1080E00075AB000075AB000075AB000075AB000010
:1080F00075AB000075AB000075AB000075AB000000
:1081000075AB000075AB000075AB000075AB0000EF
:1081100075AB000075AB000075AB000075AB0000DF
:1081200075AB000075AB000075AB000075AB0000CF
:1081300075AB000075AB000075AB000075AB0000BF
:1081400075AB000075AB000075AB000075AB0000AF
:0481500075AB00000B
:1081540053B94AB9002908BF00281CBF4FF0FF31AA
:108164004FF0FF3000F00CB8ADF1080C6DE904CE0F
:1081740000F022F8DDF804E0DDE9022304B07047E2
:10818400704700BF10F8012B11F8013B012A28BFEA
:108194009A42F7D0D01A7047034611F8012B03F81E
:1081A400012B002AF9D17047034613F8012B002A4A
:1081B400FBD1181A013870472DE9F04786468C46E2
:1081C4000846089E154674461946002B40F0C180A7
:1081D4008542B2FA82F245D94AB1C2F1200300FACB
:1081E40002FC954094402EFA03F343EA0C0C4FEA48
:1081F400154EA8B2230CBCFBFEF80EFB18CC08FBF2
:1082040000F943EA0C43994528D9EB1808F1FF37E4
:1082140004D2994502D9A8F102072B44A3EB090320
:10822400A4B2B3FBFEFC0EFB1C330CFB00F044EACF
:108234000344A04214D92C190CF1FF3304D2A042F8
:1082440002D9ACF102032C44241A43EA07401EB1BC
:10825400D440002334607360BDE8F0874746DDE70F
:108264006346F1E792BB431B01214FEA154EAFB2BF
:10827400200CB3FBFEFC0EFB1C330CFB07F840EA9E
:108284000343984561D9EB180CF1FF3004D29845AB
:1082940002D9ACF102002B44A3EB0803A4B2B3FB54
:1082A400FEFC0EFB1C330CFB07F744EA0344A74215
:1082B4004DD92C190CF1FF3304D2A74202D9ACF1E9
:1082C40002032C44E41B43EA0040C0E7C2F120034C
:1082D4009540944020FA03F12EFA03F34FEA154E29
:1082E4009040AFB20343B1FBFEFC0EFB1C10190C13
:1082F4000CFB07F841EA0041884522D969180CF1C2
:10830400FF3004D2884502D9ACF102002944A1EB24
:1083140008019BB2B1FBFEFC0EFB1C110CFB07F722
:1083240043EA01439F420ED9EB180CF1FF3104D20A
:108334009F4202D9ACF102012B44DB1B41EA00410C
:1083440093E76046E3E76146F7E76046A4E76346E0
:10835400B8E7834206D916B9002108467CE7C6E986
:1083640000E0F9E7B3FA83F78FB9834201D372458A
:1083740008D8BEEB020460EB030301209C461EB93F
:10838400002169E73846FAE7C6E9004CF8E7C7F187
:10839400200CBB400EFA07F522FA0CF42EFA0CF16D
:1083A400BA401C4320FA0CF3B8404FEA1449014385
:1083B4001FFA84FEB3FBF9F809FB18300B0C08FB19
:1083C4000EFA43EA00439A4540D9E31808F1FF3016
:1083D40004D29A4502D9A8F102002344A3EB0A036C
:1083E40089B2B3FBF9F809FB183308FB0EFE41EA26
:1083F40003418E452CD9611808F1FF3304D28E4510
:1084040002D9A8F10203214443EA0040A1EB0E0182
:10841400A0FB02984145CE46434602D306D14D45C2
:1084240004D20138B9EB020E68EB0403002EA7D086
:10843400B5EB0E0261EB030101FA0CFC22FA07F31F
:10844400F9404CEA0303C6E9003199E74046C5E721
:108454004346D9E70B460321014A02480EF0CFBD3B
:10846400F0B30100ACAB010003460121014A02480C
:108474000EF0C5BD09B40100ACAB0100084609B15A
:10848400FFF7F2BF0321024A02480EF0AFBD00BF5E
:1084940024B40100ACAB01002DE9F04102278EB0F9
:1084A4001422002104A812F07BF80DF10E03002021
:1084B4000693079704F006FB064630B103463E4A8E
:1084C40001213E480EF09BFD1DE03D4D09AC0FCD52
:1084D4000FC42B683A4623603A493346009609A8EC
:1084E40005F046F9034690B10121374A33480EF0AE
:1084F40086FD364D284611F061FB70B90121344ADE
:108504002E480EF073FD00200EB0BDE8F08103216B
:10851400304A2A480EF06AFDEBE7AB6828461B6830
:108524002D499847031E01DA2C4AC9E70123059314
:108534000C230027DFF8A880204EADF82030AB686C
:1085440028465B6804A99847031E05DA01213046D2
:10855400244A0EF054FDF2E711F028FFBDF90E3065
:10856400B3F5FA6F18DD4FF47A72A0FB024302FBF5
:108574000131E40B44EA4144E31BB3F5167F0BD904
:108584004EF66027B7FBF3F7632F0AD10321304679
:10859400154A0EF02BFD27460021212011F08DFEF7
:1085A400CDE7032130463B4642460EF028FD3846CF
:1085B40001F068FEEFE700BF2EB40100ACAB010090
:1085C400B0AC010028AD01004DB4010080A8010049
:1085D40093B4010072B401003EAD0100A9B40100DE
:1085E400F6B40100CBB40100DFB401002DE9F04F73
:1085F40091B0009302F004030293C2F3C203013367
:10860400840705460E46DDF868800392059340F022
:10861400BB81041D30B1072909D86FF01B0011B0CC
:10862400BDE8F08F01F007063444C6F10806009B4C
:108634004FF000094FF0040A591E4FF0FF334F4624
:108644000193CB465346CDF810900DB1009A2260A9
:108654000598002800F3E8809848009A824203D3E2
:1086640097488242C0F0E080039AA4EB050E92077B
:108674004FEA9E0000F103810F2F00F2B180002D1C
:1086840000F0058107F140020DEB020C019A0CF891
:10869400200C0CF8102C049801300490E7E07A28A0
:1086A4005DD84B280ED8472859D829282DD82528F5
:1086B40052D054D820287AD02338D0F1000B4BEB79
:1086C400000B74E04C382E2849D8DFE800F07048DD
:1086D400484848484848484848484B484848484813
:1086E40048484859484B4B595959704B6D48704844
:1086F400184B184848827F4B48484B487F0000205D
:108704004FF0000B4FF0040A38E001222A38C0B2BF
:1087140002FA00F010EA0E0F49D110F0625C2FD17A
:1087240010EA020B43D06046013C5444B4FBFAF413
:108734000AFB04F4002D61D0A3EB050CA444B4455A
:108744003FF66BAF002868D1042B47D158F8043B9F
:108754002360042304342AE0019A013A01924FF081
:10876400000B24E011F8010C6C2834D1002011F81E
:10877400023C83466C2BC5D14FF0080A5346D3E71D
:1087840008F1070828F00708073424F00704F8E87C
:1087940002AB35B106982044B0423FF63EAFC4E97F
:1087A40000AB4FF0000B08344FF0080A534611F8A1
:1087B400010F002878D0BBF1000F7FF470AF25289B
:1087C400F5D14FF0010B019B013301934FF0040AE3
:1087D400ECE7584694E700208346A5E7082B02D02F
:1087E4006FF015001BE708F1070828F00708F8E800
:1087F4000223C4E9002308230834D8E768B9042B0A
:1088040002D108F10408A4E7082BE9D108F107080C
:1088140028F0070808F10808EDE7059A013A0592DF
:1088240058F8042B009210E7039A900720D54FF0D4
:10883400010CA4EB050E4FEA9E00BEF5007FCFD2DB
:108844000F2FCDD8F5B107F140020DEB020E019ABE
:10885400C0B20EF8200C0EF8102CBCF1000F3FF43F
:108864001AAF60F07F000EF8200C09F101090137FE
:10887400C5F108024FF6DA7E0434069297E74FF00A
:10888400000CDAE7BCF1000F01D00136EFE70298E3
:1088940002360028EBD10098CDE90631FFF784FCBD
:1088A400DDE906310644E2E7631BB3F5806F97D236
:1088B40045B9A6F10804E018B1E600BF00A701001D
:1088C4000CDB0100029A9B0828602B709DF8103085
:1088D400C2B1EB7085F80290B9F1000F05D0002207
:1088E40008A8C5F1010C97420ED14FF0000AC5F15A
:1088F40001030DF1200801930DF1300B574512D1FE
:10890400601B8CE66B70E5E710F8013B190608D58F
:108914000CEB040EB64503F07F033FF67EAE04F87D
:10892400013B0132DFE7B9F1000F03D098F90020D1
:10893400002A17DB029BD3B11AF80B2004F8012B91
:108944000022019B18191044B0423FF666AE98F815
:108954000000009904F8010B2046039211F013FE65
:10896400039A14440AF1010A08F10108C6E798F8C9
:10897400002055F822300093029B009845F82230DD
:10898400FFF712FC421CDCE76FF00D0047E600BF66
:108994002DE9F04F97B000AFD7F880B03B62CBF32E
:1089A400C0030446894690F802A0FA62BB6141B94B
:1089B400457800780AEB800020444D4517D8A0EB99
:1089C4000409E378FB61BAF1000F02D01BF0010F38
:1089D40016D1FB6953BBFB6A1BB1494620463A6A70
:1089E40098474D4628465C37BD46BDE8F08F461C87
:1089F4003046FFF7D9FB0130304409F10109DCE7C7
:108A0400626823787A62FA6A9900796104EB8301D7
:108A1400002A40F001810E464FF000084D4601EB5C
:108A24000A094E454CD101EB0A0610E01BF0020F77
:108A3400D1D023789A007A61626804EB83017A6268
:108A4400FA6A002A77D14D46904601EB0A061BF0DC
:108A5400050F0CBF02230123FB62FB6906EB430AEB
:108A64000BF00203BB625645BCD016F8021B16F885
:108A7400013C54F82390994B994502D3984B99455E
:108A840036D3BB69002B40D0786A0DF07AFC0028FD
:108A94003BD0E9468AB06A46924B53617B6AC2E98D
:108AA40006314FF4007313848F4B42F8103F0023B8
:108AB4004FF412518D4801F0ABF8023DCD46D2E798
:108AC40016F8013BF96254F82300FFF76DFBD7F861
:108AD4008430F96A01304BB1D7F8883098453EBFED
:108AE400D7F8843023F8180008F10108054498E702
:108AF400BB6923B1786A0DF044FC0028C9D11BF08E
:108B0400010F05D1FB6AED1AADE7BB6A002BAAD0B1
:108B14004846FFF749FBD7F8843053B1D7F888307B
:108B240098453FBFD7F88420431C22F8183008F139
:108B34000108054497E7BAF1000F73D01BF004064F
:108B440073D0D046002607F1480052463B61B96213
:108B540011F019FDB96A3B6901EB0A02BA62FA69BC
:108B6400F9695200FA60BA6A02EB41023A610BF009
:108B74000202BA603A69B96A8A4258D162781BF033
:108B8400020F18BF00217A6208BF4FEA5801B218D9
:108B94001BF0010FD2B240F09F801BF0040F14BFF2
:108BA40040460020BB616270A070E17020463A6AC2
:108BB4007969FB6A9847051EFFF614AFBB69414605
:108BC40023707B6A3A6A6370FB6984F802A0E370DD
:108BD40007F14800FB6A9847B0F10008C0F2BA8078
:108BE4007B69A9EB0A01C91AFB683A6AC91AD7E971
:108BF4000A0398470028C0F2AF804FF0000BA84446
:108C040008EB000507F1380AB34571D300213A6A2D
:108C14000846FB6A9847E5E656464FF0000807F118
:108C2400380092E75646D04696E7B04694E7BA6ACB
:108C340012F8021B12F8015CBA6254F82500274AA4
:108C4400904202D3264A90421ED3BA6932B1786A5E
:108C54007B600DF096FB7B6800288BD1BA6802BB61
:108C640008F1280207F1300C08F10100944407F1DF
:108C7400580208F1020852FA80F00CF8101C5FFA4E
:108C840088F800F8105C75E7BA693AB1786A7B60D5
:108C94000DF077FB7B6800287FF46CAF1BF0010FAD
:108CA40009D006F1280207F13000711C161806F8E5
:108CB400205CCEB25EE71BF0040F3FF45BAF08F11B
:108CC400280207F1300008F1010102EB000808F85E
:108CD400105C5FFA81F84DE7002063E700A701000C
:108CE4000CDB010023B501000400000124AC0100E9
:108CF4001BF80A3054F8239087F83730D7F88430BB
:108D04002BB3D7F888309B4521D2D7F8843033F879
:108D14001B8001213A6AFB6A07F137009847002853
:108D24001ADB0544B8F1000F06D14846FFF73CFAB8
:108D340000F101081FFA88F8414648463A6AFB6A7E
:108D44009847002808DB05440BF1010B5CE74FF062
:108D54000008DEE7454645E6054643E6014B186054
:108D6400704700BF2082002080B505460E46174696
:108D740098460CF0A1F8034611F0B6FC0446DFF85F
:108D84001890424649F8003039463046A84754F80E
:108D9400090001F0D9FD00BF080000002DE9F047EB
:108DA400058B04462807904611D4022905F00705CF
:108DB40040F0CC8020460DF08AFD78B10138218B3B
:108DC400042811D8DFE800F0C2106D859500012950
:108DD4000CBF45F0100545F02005258388F3118864
:108DE400BFF36F8FBDE8F08701F0070AAA4500F0D2
:108DF400A5800027B9463E46A368002B00F0BC803E
:108E040041F00801218388F31188BFF36F8FA168B3
:108E1400002900F0BA800D68002900F0B6803346BE
:108E240052462046D1F80480C047002D76D02B68E6
:108E340029461D46F0E701F007035A1F012A1BD8F3
:108E4400002221F00701062B276889B2C4E9002219
:108E540009D13B4603E0628B013262831B68002B1D
:108E6400F9D141F00201204621830DF030FD0028A4
:108E74007AD041F0200176E0042B0AD121F00701D9
:108E840089B2204621830DF022FD10B141F020016A
:108E94002183218B01F0070AAA454FD00027B94648
:108EA400AAE7236921F0070141F00601062DD3F852
:108EB400009021832DD1B9F1000F3FD041F008017A
:108EC400218388F31188BFF36F8F20463949C8473F
:108ED40029E021F00701236941F0040189B2042D3E
:108EE400D3F804902183E6D000274FF0040A3E46CD
:108EF40082E721F00701236941F0050189B2052DBC
:108F0400D3F808902183D6D000274FF0050A3E46B7
:108F140072E700274FF0060A3E466DE72B4687E7C7
:108F2400B9F1000FD1D1EFF31188202383F3128814
:108F3400BFF36F8F238B23F008032383258BEA066B
:108F44002ED525F01003238305F007056669218BD0
:108F5400002EBFF670AF00232768C4E9003321F068
:108F6400070141F001012183218B4FF0000901F039
:108F7400070AAA457FF440AF002F9CD041F00801B6
:108F8400218388F31188BFF36F8F002FC8D03D6809
:108F940039463346524620460DF0C5FC2F46F4E7C9
:108FA400AB067FF51BAF25F02003238305F00705EF
:108FB40000E700BF5769010010B530B90B480C49F0
:108FC4000DF090FD6FF0150010BD836833B90748AC
:108FD40008490DF087FD6FF00400F5E71B6813B135
:108FE400BDE8104018471846EEE700BF3CAC01004E
:108FF400D7B50100E8B5010010B530B90B480C49EC
:109004000DF070FD6FF0150010BD836833B907488B
:1090140008490DF067FD6FF00400F5E75B6813B1D4
:10902400BDE8104018471846EEE700BF3CAC01000D
:10903400D7B50100E8B5010070B508B101B132B986
:109044000B480C490DF04EFD6FF0150070BD84689F
:109054000CB1E56835B9064807490DF043FD6FF0DA
:109064000400F3E741F8040BE368BDE870401847D7
:109074003CAC010006B60100E8B5010010B5044699
:1090840030B9104810490DF02DFD6FF0150010BDDA
:10909400006830B90B480D490DF024FD6FF0010054
:1090A400F5E783680BB11B6933B9064808490DF02D
:1090B40019FD6FF00400EAE7616898470028E6D1DB
:1090C4002060E4E73CAC010032B6010043B6010085
:1090D400E8B5010070B51346044630B9104811498B
:1090E4000DF000FD6FF0150070BD006830B90C483C
:1090F4000D490DF0F7FC6FF00100F5E782680AB145
:10910400956835B9064809490DF0ECFC6FF0040088
:10911400EAE70A46AC466168BDE87040604700BFB4
:109124003CAC010032B6010043B60100E8B50100D1
:10913400034A13680BB9526813600020704700BFDC
:109144002482002030B50C460E4985B00291D0F837
:10915400D4110546CDE9003100F1F0014FF0FF33A1
:1091640020460AF0A1FB50B9012384F86C30D5F8ED
:10917400D03123B1204605B0BDE83040184705B0D2
:1091840030BD00BFE16B010038B50C461146054601
:109194000DF026FD034638B9284604490DF020FD9C
:1091A40003460020236038BD0120FBE7F3D901000A
:1091B4002DE9F04F012381460569466887B005F51E
:1091C4005F77D7E8EF2F002A03D1C7E8E13F0029F2
:1091D400F7D10CBF1A46002240F0B080B368B16AE0
:1091E40005F5F8781C1F10460DF081FD84426ED8F9
:1091F400013A00F09D80B2FA82F24FF00044D4406C
:1092040072682046073222F00302C5F83C22B16A94
:109214000DF06DFDC5F84002B36A40466343033365
:1092240023F0030302EB4302230103EB440309335A
:1092340023F0030303EBC403C5F834221A440832B1
:10924400C5F830227368C5F83842C5F82C323D4B56
:10925400C5E9AD63316800F0E5F90446002834D16E
:10926400D9F810B0D9F804A0D9F800300BF5347946
:10927400059004934846DAE90734012B08BF103CF3
:1092840010F00FFFDAF824002F4904AB01EB802122
:109294004FF480624846009323460BF059FA2B4959
:1092A4000BF5307010F0B6FEDAE9050183685C68EE
:1092B4004CB15B46264AA047044630B9DAE90501B9
:1092C40083681B692BB96FF05704002129E0013230
:1092D40089E70122984704460028F6D11D4B284609
:1092E400C5F8D0311C4BC5F8D4311C4B0393D5F8C9
:1092F40040320293D5F83C32CDE9008305F5117371
:10930400B26AD5F8781300F055F904460028DCD188
:1093140005F1F0000AF06EFB0028C5F880030ADBB3
:10932400022138460DF090FC204607B0BDE8F08FCE
:109334006FF00B04C9E76FF01504C6E76FF077040C
:10934400F2E700BF376C0100A89C00201D6C0100EF
:10935400116C010065930000C96D01007D6C010072
:1093640013B5044640B100230122CDE90032074B76
:10937400D0E909120AF06CFA236F1B6823B1606FFD
:1093840002B0BDE81040184702B010BDF3D9010087
:1093940013B504460846216901F55F71D1E8AF1F92
:1093A400022910D193B1A0B10121CDE900311346B6
:1093B400D0E909120AF04CFA074B984208BF6FF043
:1093C4000B0002B010BD6FF00F00FAE76FF04C0015
:1093D400F7E76FF00100F4E72EF8FFFF2DE9F347FC
:1093E40089461546066906F55F73D3E8AF3F022B3D
:1093F40064D1136823B96FF0150002B0BDE8F0879B
:109404001B78002BF7D0D6F878A3BAF1000F36D129
:1094140006F5EC774FF0FF324FF0FF3338460AF091
:10942400C9FE30462A6801A9FFF7AEFE019C8046BA
:109434001CB938460DF006FCDDE705F10803236787
:109444006B6984F86CA06367646460B138460DF09E
:10945400F9FB21463046A36E2A68FFF773FE00200D
:10946400C9F80040C9E71F22296804F1480011F037
:10947400C1F8384684F867800DF0E4FBEFE7304626
:1094840010490DF0ADFB04460028B4D0002705F1C7
:10949400080303676B6980F86C70436740641F229C
:1094A4002968483011F0A6F822460121304684F894
:1094B400677000F061F80028D1D09CE76FF00F00CE
:1094C4009BE700BFF3D9010010B50C46006900F515
:1094D4005F73D3E8AF3F022B0FD189B10A4900F57E
:1094E400307010F0C3FD204610F092F8782200216D
:1094F400204611F055F8002010BD6FF00F00FBE777
:109504006FF00100F8E700BFB09400202DE9F04FA0
:1095140005460E4690460027D0F8C4A085B0AAF5AB
:10952400BE7421463046FEF72DFEE0B9114BA4F17E
:10953400480B0293DAF810303246CDE9008329460D
:109544004FF0FF335846AAF5E2790AF0ADF960B955
:109554007823012203FB079383F86C20DAF80C309C
:109564000BB158469847783417B105B0BDE8F08F71
:109574000127D6E7F76D01001FB5144690B18AB1F3
:10958400012912D10A4B00F1F0010293D0F8D43131
:10959400483201934FF0FF33204600930AF084F9D8
:1095A40004B010BD6FF01500FAE70020F8E700BF23
:1095B400F76D01002DE9F04387B00E46DDE90E8119
:1095C4001446DDE910251F4630B329B3DFF850C037
:1095D40000F1F009002D08BF65469EB9CDE90344AA
:1095E40000F5E2742046059610F0AAFA03ABCDE923
:1095F40000432A463B46414648460AF075FA07B0FE
:10960400BDE8F083002241460E9248462A4607B040
:10961400BDE8F0430AF0B8BB6FF01500EFE700BFF8
:1096240011950000F0B504462B4A87B004AB0E46F2
:1096340092E8030083E80300002C49D018460AF09E
:109644000DF80546B0B94FF0FF33E16C04F154074F
:10965400A163CDE9010000933846236D04F138027B
:109664000FF088FCA06C0DF0F3FBC4F8BC0020B92B
:109674006FF00B05284607B0F0BDA06C0DF0E8FBB9
:10968400C4F8C0000028F3D0236CD4F8BC10C4F88C
:1096940090300423C4F89430C4F8AC300223E3625D
:1096A4000E4BB4F84820C4F88C10616C236204F1AA
:1096B4008C03C4F8A070A4F89820C4F8B870C4F857
:1096C400A810A4F8B020C4F8A400A6612363D1E7CD
:1096D4006FF01505CEE700BFC4AC010078AD010002
:1096E4002DE9F047044607464FF00109DFF85080A2
:1096F40014B93846BDE8F08794FAA4F5B5FA85F5AF
:1097040009FA05F32E0108EB05156FEA030A24EAAA
:1097140003042B7B002BEBD058F806301B694BB9A4
:109724004644736804222846196807EA0A0700F0C9
:109734005BFADDE7284698470028D9D1F0E700BF57
:1097440094AC010030B5002289B00F490F4810F0E5
:1097540074FE002200230024CDE906230E230C4DC1
:10976400CDE903344FF440722846CDE90144094B56
:10977400094900940BF008F90849284610F0ECFC5C
:10978400204609B030BD00BFA5970000188F002007
:10979400888A0020919A0000A8A0002068B60100E1
:1097A40001480AF001BE00BF588500202DE9F047AA
:1097B40080461F480F460DF097FB0646002830D020
:1097C40000252846BDE8F087237B6BB12368DB685E
:1097D4000BB12046984723681B69D3B963680422F8
:1097E4002046196800F000FA013610344C45EBD3DA
:1097F400B8F1000FE5D0002DE2D02846FFF770FF46
:109804000546002FF7D000214FF4A47010F055FD49
:10981400F1E7204698470028E0D00AFA06F31D43F2
:10982400E2E705464FF0010A024CDFF80C90DDE751
:10983400E894002094AC0100A4AC0100014B53F85F
:1098440020007047B8AD010008B5034608462BB1A7
:10985400044A136000F072FC002008BD6FF015008C
:10986400FBE700BF5082002010B5044C237813B9E5
:1098740003480AF099FD0123237010BDF4990020D8
:109884005885002010B5044609480DF02DFB3CB165
:10989400084BD3E8EF1F0139C3E8E21F002AF8D1CF
:1098A400054810F0D6FDBDE8104004480AF07CBD20
:1098B400E0940020E4940020188F002058850020B4
:1098C40000200146034BD3E8EF0FC3E8E21F002A50
:1098D400F9D17047E094002070B5FFF7F1FF054619
:1098E400074C084EB44200D370BD63685B792BB15A
:1098F40023685B6813B12946204698471034F1E782
:1099040094AC0100A4AC010010B5044C04492046F9
:109914000CF076FE034B1C6010BD00BF9884002041
:10992400A4AD0100D894002008B50023074A4FF4E1
:1099340000411370064A07481360074A1360FFF793
:1099440083FFBDE80840FFF7DFBF00BFF5990020A3
:10995400E0940020E96E0100E49400200146002216
:10996400002301480CF06DBE9884002001480CF0DF
:1099740006BF00BF98840020024B014618680CF013
:1099840052BF00BFD894002001480CF087BF00BF2D
:109994009884002070B5264B1878002847D0FFF72C
:1099A400E5FF054670B1234BD3E8EF1F0139C3E847
:1099B400E21F002AF8D1204C204EB4422DD3284671
:1099C400FFF7DAFF1E4B1F4C1B68002B19DD10F04C
:1099D400EDFC4FF47A72A0FB020302FB0131C30BCE
:1099E40043EA4143D4E900209B1A40F2E9324FEAAA
:1099F400D13161EB0001934271F1000101D3FFF712
:109A04006BFFD4E9003213F57A7342F10002C4E922
:109A14000032BDE87040FFF7B7BF63685B7923B1DC
:109A24002368294620461B6898471034C5E770BD53
:109A3400F4990020E494002094AC0100A4AC01004B
:109A4400E0940020108F002070B50D4D297861B985
:109A54000120FFF7ABFE0B4C0B4EB44206D3FFF7CD
:109A640099FF0028FBD101232B7070BD63685B79DB
:109A74001BB1236820469B6898471034EDE700BF6C
:109A8400F599002094AC0100A4AC010000212DE95B
:109A9400F0470846FFF78AFE044658B340F2676869
:109AA4004FF0000910F020FE1B4B1C4A1B5813609A
:109AB40033B11B4B1B68092B02DD1A480AF074FCF6
:109AC4000025194FDFF85CA044B12046FFF708FEDB
:109AD400044618B94FF0FF384FF0FF39FFF75AFF2B
:109AE400064628B9B5B942464B4650460AF090FCA2
:109AF4003546E9E74FF0FF384FF0FF39D2E72B68DE
:109B04009B691BB100222846114698471035BD4277
:109B1400F5D3E8E7054DFAE708000000DC940020DF
:109B2400E494002058850020A4AC010094AC01000A
:109B340013B518480DF0D8F9174B1B7873B1EFF330
:109B44001184202383F31288BFF36F8FFFF722FF62
:109B540084F31188BFF36F8F02B010BD0F4B1B68E5
:109B6400002BF9D050B9002200230D48CDE9002381
:109B74004FF4004200230BF06DFCEDE70928EBD114
:109B8400074810F066FC074802B0BDE810400AF030
:109B94000BBC00BFE4940020F5990020DC94002065
:109BA400188F00205885002010B5064B04461B680A
:109BB40098472146A06004480CF0C2FDBDE810405F
:109BC400FFF7B6BF5082002098840020044A054B5A
:109BD4009B1AB1EBD30F34BF52F831000020704709
:109BE400ACAB010094AC0100084B10B4C31A446838
:109BF4001B110133237143689A7101224368196070
:109C040043685A7110BCFFF72FBE00BF94AC01002B
:109C14002DE9F04F8FB0C1F34A2804AF0D469146A9
:109C2400B8607B600C0DB8F1000F63D000264FF0D4
:109C3400040B4FF00A0A07F11403C7F80C80C7E9B4
:109C440007667E620193CDF808B0CDF800A007F155
:109C54001C0332464846F968FEF79AFEB0F5006FD9
:109C640003461CD36C468AB0D9F8041004AB2648CA
:109C74001A46C3E9050140F2FF71D9614FF400713E
:109C84001984224B42F8103F4FF4125133462048B6
:109C9400FFF7BEFFA5462C37BD46BDE8F08FC0F3E5
:109CA4000A0804F11700184420F0070080083B60FC
:109CB400FFF754FE68F35325044690B13B6800F166
:109CC4001001C7E9083607F11403F961CDE900A3CF
:109CD400CDF808B048460F4AF96807F11C03FEF7AF
:109CE40057FE68F353252A4620467B68B9680DF071
:109CF4002DF9D0E704F1170020F007008008FFF7E2
:109D04002DFE0446EDE700BF7DB60100040000010E
:109D140044AC0100256F01002DE9F04F87B00446E3
:109D2400DDE9105ADDE91279934698460391BFB1F3
:109D34003B46524610210020CDF80090CDF81490F7
:109D4400FEF754FCB0F5006F06460AD340F2FF73E9
:109D54000221174A174807B0BDE8F04F0DF04FB97C
:109D64003E4605F11700304420F007008008FFF755
:109D7400F5FD04F007040BF0070BE40044EA8B1430
:109D840044EA462444EA0554054640B13FB13B4603
:109D940052463146CDF800901030FEF727FC43467A
:109DA40022462846039907B0BDE8F04F0DF0CEB81F
:109DB400BCB6010044AC0100406820B1034BC01A9A
:109DC40040F3CF0070474FF0FF307047ACAB010059
:109DD4000EB403B503AB53F8042B014604480193B6
:109DE40001F0E6F802B05DF804EB03B0704700BF81
:109DF40065700100CA0605D48B064CBF02490349AD
:109E0400FFF7E6BF704700BFF2D90100F1D90100A6
:109E14002DE9F04F89B09B46149B9DF84CA0069306
:109E2400159B04460593169B0D469046179E049376
:109E3400BAF1000F00F09D8006F4807307930DF0D3
:109E44006DF806F00209024600283ED020469149EA
:109E5400FFF7BEFF0746B9F1000F08D016F0440F14
:109E640035D12A4620468C49FFF7B2FF074406F055
:109E7400010353B1894B204653F82A20884B894962
:109E8400002A08BF1A46FFF7A3FF06F48073002BCD
:109E940049D006F00803002B63D1B8F1000F66D057
:109EA400424620468049FFF793FF0546069B3D4402
:109EB400002B6DD1049B002B73D1F30700F1E480D8
:109EC40031462046FFF796FFD8E00746C3E7774BB5
:109ED40018680028CAD0764B4FF47A791B684FF083
:109EE4003C0CB5FBF3F5B5FBF0F14FF4616300FBFB
:109EF400115509FB05F5B1FBF3F2B5FBF0FE03FBCD
:109F0400121100FB1E55B1FBFCF309FB05F5B5FB73
:109F1400F0F50CFB131120460091CDE901E56549EC
:109F2400FFF756FFA2E706F00803EBB1624B2046A9
:109F340053F82A206149FFF74BFF0546B8F1000F9B
:109F440005D0424620465849FFF742FF0544BBF17D
:109F5400000FABD05A4620465949FFF739FF054454
:109F6400A4E74FF0000BE1E706F00805E6E74546F5
:109F74009CE7BBF1010F069B06D1002B64D1049B27
:109F8400002B7BD000250CE0002BF8D04D485CE082
:109F94004D48069B22464D490CF0C2F9049B002B08
:109FA40068D0DFF82C81DFF82C91049F3146102F04
:109FB400204628BF10274FF0000BFFF71BFF5D451D
:109FC40045DC059B494620461A78FFF701FF4FF010
:109FD400010B1BF0070F03D141462046FFF7F8FEA3
:109FE4005F453BD9059B4946204613F80B20FFF7F4
:109FF400EFFE0BF1010BBBF1100FEAD14FF0000B98
:10A0040020463549FFF7E4FE5A46059B20469A5CF4
:10A01400A2F120015F2928BF2E223049FFF7D8FE84
:10A024000BF1010BBBF1100F1DD01BF0070F03D177
:10A0340041462046FFF7CCFE5F455A46E5D84146E7
:10A044002046FFF7C5FEEBE71F485546A1E741460A
:10A054002046FFF7BDFE0BF1010BB0E72046204977
:10A06400FFF7B6FEC5E7059B3B440593049BDB1B4A
:10A0740004939AD1BAF1000F7FF41FAF204609B0C0
:10A08400BDE8F04F0CF0DFBF2046054A0549FFF755
:10A094009FFE15E7F9B60100FDB60100C8AD010049
:10A0A400F4B60100ACC1010022B70100F094002015
:10A0B400EC94002006B70100DCAD010026B70100D6
:10A0C4002CB701009370010065700100B5AF00006A
:10A0D400BDD9010031B7010037B7010039B701001C
:10A0E400BBD9010042F20F7373B58B4228BF0B46F4
:10A0F40005680446052168460D4A0BF0C7FB064671
:10A10400636828460B225B680A490CF08EFF63687B
:10A114003246694628465B680CF087FF63681B2259
:10A1240028465B6804490CF080FF02B070BD00BF94
:10A134000FB5010058B701003CB70100002101230D
:10A14400064A904206D8064A01B901231360054B1A
:10A1540018607047012140085B00F2E740420F009D
:10A16400EC940020F0940020F8B50D460446064F08
:10A174004618B44201D12846F8BD14F8011BBB6847
:10A1840001485B689847F4E744A80100014B036069
:10A194000020704724AE01000122024B00201A70F7
:10A1A400704700BFF99900201FB501240294044CA4
:10A1B4000194BDF8184000940EF05EFB04B010BD8D
:10A1C400F9990020B0B5144A01296C4600AF88B053
:10A1D400124B06BF0125134600256A461049C2E901
:10A1E40005134FF4007393830E4B42F8103F002382
:10A1F4004FF4E6510C48FFF70BFD0C4BA5461C68C9
:10A204003CB154F8083C083C0BB128469847A46874
:10A21400F6E7BD46B0BD00BF9EB70100A6B701007A
:10A22400AFB701000300000134AC01002095002009
:10A2340070B516461D4603210F4A10480CF0DFFE88
:10A244000F4B1C687CB16FF08500083C63682BB130
:10A254003078984710B110F1860F09D1A4680CB179
:10A26400083CF3E710B16FF07F0070BD2846FCE7AF
:10A274006FF00D00F9E700BFC4B7010034AC010072
:10A2840020950020062310B50C4C86B0182260706F
:10A2940000216846237010F083F9094B6946CDE923
:10A2A400013402230020ADF80C3006F04BFB10F112
:10A2B400800F08BF002006B010BD00BFF799002032
:10A2C40038AE010008B504480CF084F8BDE8084035
:10A2D40002480CF07FB800BFE2B7010017B80100D4
:10A2E4002DE9F04706460C4600AF002936D0D1E9E7
:10A2F4000012E9468AB06D46A3684FF0050AA846E5
:10A304001F48C5E90723C5E9050148F810AF002334
:10A3140042464FF421511B48FFF77AFCD4E903125B
:10A32400CD466369AD461848C5E90723C5E905016B
:10A33400C5F810A0002342464FF421511148FFF7FD
:10A3440067FCCD46E3690121104A0E480CF057FE24
:10A35400A36901210E4A0B480CF051FE012E07D1CE
:10A36400EFF305830B4A31460648103B0CF047FED9
:10A374002146304609F02EFDBD46BDE8F08700BFFA
:10A3840045B801007CAC010074B80100A3B8010019
:10A39400B2B80100E0B8010030BFFFF7FDBF00BF55
:10A3A4002DE9F04105460B4EDFF82C80324606EBD2
:10A3B4000807CC1B2046094910F0E5F8A0194246CD
:10A3C4000021083C10F0ECF86C6707F10800BDE8C8
:10A3D400F08100BF0000000004000000A4AC0100F4
:10A3E400074A936893F90E10002907DB52699342D8
:10A3F4001FBF044A536843F080535360704700BF43
:10A404009499002000ED00E070B52A4C06460D46F4
:10A4140029482A490CF0C2FEA36ADB0647D5264820
:10A4240027490CF0BBFE1120A36A1C0704D522485F
:10A4340024490CF0B3FE12201E4CA36A990712D5CE
:10A4440021491D480CF0AAFE636BA26A120609D5C5
:10A4540001211E4A18480CF0D2FD1EB1A36A23F054
:10A464008003A3621320134CA36ADE0704D51248A9
:10A4740017490CF093FE1420A36A9C0604D50E48D9
:10A4840014490CF08BFE15200A4B9A6AD10658BF6A
:10A494009A6A9A6A920642BF5A6A22F400525A622F
:10A4A4009A6A42F0FF029A6200232B7070BD10205A
:10A4B400BAE700BF00ED00E07CAC0100F3B8010096
:10A4C40009B901003CB901004FB9010067B90100A5
:10A4D4007DB901009CB9010010B5244C24492548DC
:10A4E4000CF05CFEA36A99013ED5224822490CF087
:10A4F40055FE1E20A36ADA0104D51E481F490CF03C
:10A504004DFE1F20194CA36ADB0204D519481C49CF
:10A514000CF044FE0220A36A1C0304D51548194913
:10A524000CF03CFE2120114CA36A590304D51148B8
:10A5340015490CF033FE2220A36A9A0304D50D4872
:10A5440012490CF02BFE2320084CA36ADB0304D52C
:10A5540008480F490CF022FE2420A36A6FEA034343
:10A564006FEA1343A36210BD1D20C3E700ED00E0B2
:10A57400CBB901007CAC0100E3B90100F6B90100DC
:10A5840010BA01003ABA010058BA01007DBA0100BC
:10A5940097BA010070B5294C06460D46284829494A
:10A5A4000CF0FCFDA36AD9043CD5254826490CF0DF
:10A5B400F5FD1720A36A1A0504D5214823490CF098
:10A5C400EDFD18201D4CA36A9B0512D51C4820499B
:10A5D4000CF0E4FDA36BA26A100409D501211D4A05
:10A5E40017480CF00CFD1EB1A36A23F40043A362C8
:10A5F4001920124CA36A590504D5114816490CF0C8
:10A60400CDFD1A20A36ADA050ED50D4813490CF0C6
:10A61400C5FD1B20094A936A43F47F4393620023D8
:10A624002B7070BD1620C5E7A36A9B04F2D50448BD
:10A634000B490CF0B3FD1C20ECE700BF00ED00E07B
:10A644007CAC0100C2BA0100D8BA01003CB90100D7
:10A65400E9BA010002BB010017BB010032BB0100D3
:10A664009CB901002DE9F0478AB0694B0446D3F840
:10A6740004A089461646002500AFCAF3080885F3EE
:10A684001188BFF36F8F02F07F43B3F17F4F1ED168
:10A69400D3071CD4500603D4110708D4012508E0BD
:10A6A4005C495D480CF07AFD16F0040600D04C4677
:10A6B40000250023FB71A8F10303092B00F2868017
:10A6C400DFE803F0077C7F788484848484822C46CA
:10A6D400EFE7524950480CF061FD00234C4EFB71EA
:10A6E400F36A9A0705D54E494B480CF057FD0023F1
:10A6F40029E0F36A002B01DA4A49F5E7F36A5B00C3
:10A70400F5D5494944480CF049FD7369A26943F4FD
:10A7140080737361BFF34F8FBFF36F8F736932F828
:10A72400022C23F480737361BFF34F8FBFF36F8FD9
:10A734004DF602739A4228D1236801213B4A3648D8
:10A744000CF05DFC2368FA79DAB907F1080604F124
:10A75400200C324620686168083403C264451646FA
:10A76400F7D17A6A002D4ED0C2F3080121B96FEAFD
:10A7740052226FEA42227A62184607F10801FFF773
:10A78400AFFD2837BD46BDE8F087B36ADBB223B11D
:10A794000120F91DFFF738FE0EE0B36A13F47F4F72
:10A7A40004D00120F91DFFF7F5FE05E0B36AB3F507
:10A7B400803F9CD3FFF790FE0346C4E70020F91DB9
:10A7C400E8E70020F91DEEE719498DE7194A6E46BE
:10A7D4001AF4F87F8AB0184B18BF13466A46174913
:10A7E400C2E90513A8F11003D3614FF40073138475
:10A7F400134B42F8103F00234FF411510648FFF762
:10A8040007FAB54673E722F4FF7222F00102B2E7B9
:10A8140000ED00E078BB01007CAC01009BBB0100B3
:10A82400B2BB0100D3BB0100E1BB010000BC0100CD
:10A834001CBC01005FBB01004ABB010040BC01001D
:10A8440004000001064B5A6942F010025A615A6929
:10A8540042F480625A615A6922F008025A617047D0
:10A8640000ED00E0EFF30880EFF3098101B57246D3
:10A87400FFF7F8FE01BD00BF002080F31488BFF38A
:10A884006F8F002080F30A8880F30B880F4880F3D1
:10A8940008880EF0D8FA00200D490860BFF34F8FE6
:10A8A40000F02CF8202080F311880A484FF400614E
:10A8B400401880F30988EFF314800221084380F3E1
:10A8C4001488BFF36F8F00F0E5F8000050BD00203E
:10A8D40094ED00E010B00020002318460649D1F89A
:10A8E4009020C2F30722934200DB7047C1F89830EE
:10A8F400C1F8A0000133F6E700ED00E010B572B630
:10A90400002484F31388FFF7E7FF23464FF0FF305A
:10A914000C4A03F120010133102B42F82100F8D135
:10A9240000234FF0FF30074A03F160010133102B7D
:10A9340042F82100F8D162B6BFF34F8FBFF36F8F97
:10A9440010BD00BF00E100E0084B9B6883420BD1BF
:10A95400EFF3058343B1064B5A6842F080525A60C4
:10A964005A6A22F400425A620AF0ACBA949900205E
:10A9740000ED00E018498A6882F881E04FF0300069
:10A984001044EFF3098C80E8F01F202080F3128834
:10A99400BFF36F8F114F4FF000664A698A603E60C3
:10A9A4004FF07404141920680D4C206092F981E072
:10A9B400906F0023936780F3118802F1300090E8D0
:10A9C400F01F8CF3098802F1000004B50CF0F0FBD1
:10A9D400BDE80440704700009499002004ED00E0B5
:10A9E400289500201EF0040F0CBFEFF30880EFF34E
:10A9F4000980816911F8021C0229FFD001B5724651
:10AA04000CF0C1FB01BD00BF40B2002807DB0123ED
:10AA14004109034A00F01F00834042F82130704787
:10AA240000E100E040B200280CDB012206494309A2
:10AA340000F01F008240203341F82320BFF34F8FE2
:10AA4400BFF36F8F704700BF00E100E0054B420980
:10AA540053F82220012300F01F0003FA00F01040F5
:10AA6400704700BF00E100E040B2002801F101019D
:10AA7400ACBF00F16040064B4FEA4111C9B2ABBF15
:10AA840000F5614000F00F0080F80013195470477E
:10AA940014ED00E00B4A08B50B4B22F07F029A60DC
:10AAA400BFF34F8FBFF36F8FD3F8882022F4700267
:10AAB400C3F8882009F07AFA0AF026FB00F04CF873
:10AAC40009F0B4FA0080000000ED00E042F8203CF8
:10AAD400009B0D4942F81C3C019B21F0010142F806
:10AAE400183C029B42F8081C42F8143C4FF0807357
:10AAF40042F8043C002383674FF43C43203A026548
:10AB0400C0F88030704700BF6D8D000000B50B4B5E
:10AB140015469860426F0A4B0E461A60436E83F3E3
:10AB24000B882C4686F309880020064B984720465C
:10AB3400002100220023044C204700BF94990020E8
:10AB440028950020BD7101006D8D00001022014B7D
:10AB54001A61704700ED00E0002320210348C21869
:10AB64000133452B82F80013F9D1704700E100E06E
:10AB740008B5EFF30583064A103B02EBC30152F814
:10AB8400330049688847BDE80840FFF729BC00BF87
:10AB9400A8A801001FB5094C094A23460121094808
:10ABA40000F012F900230393074B0121E41A01A8D2
:10ABB4000193029400F012F904B010BD00000720C4
:10ABC40000800020C4AE01000087002010B50C7A7C
:10ABD4000B6804F01F0223F01F031A43CB686409B7
:10ABE40023F01F03054943EA440343F00103C1F87A
:10ABF4009800C1F89C20C1F8A03010BD00ED00E021
:10AC040010B50A4BD3F89030C3F30723013B9842A5
:10AC140008D901210346064A06480CF0F0F96FF002
:10AC2400150010BDFFF7D2FFFBE700BF00ED00E009
:10AC340057BC010064AC01002DE9F04F894614466D
:10AC440006464FF00008514D85B0C84527DAD6F8BE
:10AC540004A0BAF1000F44D0BAF11F0F17D91AF0AB
:10AC64001F0F14D1D6F800B01BF01F0F0FD1584698
:10AC74000CF0DEFA07460AEB0B0001380CF0D8FAA8
:10AC8400874210D06FF01507414A3B4601E0434626
:10AC9400404A012140480CF0B2F96FF015042046F7
:10ACA40005B0BDE8F08F17F1160FEDD0BC42EBDD17
:10ACB400C5F89870D5F89C10C5F89870D5F8A030F0
:10ACC40021F01F0143F01F0BD6E900321A449942C8
:10ACD40002F1FF3A1DD1D34507D13146F8B20CF049
:10ACE400B0FA08F101080C36AFE73146C5F89870A0
:10ACF400D5F89C3022F01F0203F01F031343C5F85C
:10AD04009C30E0B20CF09DFA10F1160FC5D0441C33
:10AD1400E7E7C5F89870D5F8A020013B23F01F039E
:10AD240002F01F021343D3453146E0B2C5F8A03008
:10AD3400E8D00CF086FA10F1160FAED0C5F8987072
:10AD4400D5F89C209DF808300BF1FF3B62F3040317
:10AD54008DF80830D5F8A0309DF808205B0863F31F
:10AD640047128DF80820D6E900321344009323F0EB
:10AD74001F035B44A3EB0A03013023F01F0369465E
:10AD8400C0B20393FFF73CFFBEE700BF00ED00E055
:10AD9400A0BC01007DBC010064AC01000522044B91
:10ADA400C3F89420BFF34F8FBFF36F8F704700BF7A
:10ADB40000ED00E0BFF35F8F0022024BC3F8942044
:10ADC400704700BF00ED00E010B5034C2278FFF798
:10ADD40033FF207010BD00BFFA9900202DE9F74F12
:10ADE400294D8A4606464FF00008AB46274FD0450A
:10ADF4001BDAD6F80490B9F1000F3FD03168084649
:10AE040001910CF015FA0199044609EB010001388F
:10AE14000CF00EFA84424FF014021D4B08D002FBD2
:10AE240008F36FF015024BF8032003B0BDE8F08F70
:10AE340014F1160F2C60F8D01978A142F5DD02FB4D
:10AE440008B0C7F89840C7F89840D7F89C4000F17C
:10AE54000801007B64F304000871D7F8A0000C79A2
:10AE6400400860F347140C71D7F89C1021F01F01BF
:10AE74006960D7F8A01021F01F01296108F10108C9
:10AE840014350C36B3E700BF2C95002000ED00E02C
:10AE9400FA990020F0B54149414CD1F89030256829
:10AEA400C3F307239D4287B075D80020FFF782FFC4
:10AEB4003C4BC1F8C030854216D13B4C01A82570EB
:10AEC400FFF764F900250646384FAE4213D100203F
:10AED40023783249D1F89020C2F30722934254DBFD
:10AEE400FFF75CFF00202FE0616801EB0011FFF722
:10AEF4006DFE0130DFE70199280101EB0513DA68E3
:10AF04003A40B2F5001F21D0B2F5800F2BD0B2F534
:10AF1400801F38D15A689B680958013B22F01F00F2
:10AF240003440120844623F01F0340EA4C10CDE97A
:10AF340002218DF8100002A920780593FFF760FE26
:10AF440000281DDA6FF0150007B0F0BD5A689B6841
:10AF54000958013B22F01F0003444FF0020C01206A
:10AF640023F01F03E1E75A689B680958013B22F06C
:10AF74001F0003444FF0000C062023F01F03D4E706
:10AF840023780133237001359FE7C1F89830C1F865
:10AF9400A00001339EE74FF0FF30D5E700ED00E05D
:10AFA400D0AE0100AAFF4400FA9900200000F0FF8F
:10AFB400F0B587B007460E461446002110226846B5
:10AFC4001D460FF0EDFA02238DF80230054B2A4698
:10AFD40021466846CDE9047601930AF083FC07B064
:10AFE400F0BD00BF7972010008B502480AF02EFCDA
:10AFF400FEE700BFD2BC010008B5024B1B689847AE
:10B00400002008BD40950020034B044A1860937843
:10B0140043F0020393707047409500208C82002017
:10B0240008B50649064821F00701C1F1005202F5AE
:10B03400E0220BF01DF9002008BD00BFD3DD002085
:10B044004495002070B541690446867A0A4D59B189
:10B05400437ADB0706D42C2303FB06535B6A1B6885
:10B064009B689847002363612C20214606FB00500F
:10B07400BDE870400EF03DBFA08500202C22024B9D
:10B0840002FB0030704700BFA08500202C21827A8B
:10B09400054B01FB02339A6A1B7F801A1B3323F092
:10B0A4000303B0FBF3F07047A085002038B52C24CF
:10B0B400827A064B04FB02335B6AD3E901240C60F9
:10B0C4001568FFF7E3FF04FB005038BDA08500209E
:10B0D4002DE9F04385B00546684690461C46039129
:10B0E4000FF066F9DDE90067EFF31189202383F39C
:10B0F4001288BFF36F8F6B8B002B41D02A8B9A423F
:10B1040025D900220023284609F01CF90446F0B191
:10B1140089F31188BFF36F8F039B002B41D0324614
:10B124003B4668460FF068F92C21A27A254B20464D
:10B1340001FB02335B6A03A91B681D68DDE9002378
:10B14400A847606170BB2046FFF77CFF24E0698B51
:10B154004B1E6B8389F31188BFF36F8F2B7F2A8B70
:10B16400AC6A1B3323F00303521A02FB0344154B4E
:10B17400154AEB1A9B105343A3722B7FE372CBE760
:10B1840089F31188BFF36F8F23464246284609F09E
:10B19400D9F804460028BFD10024204605B0BDE8F4
:10B1A400F0836361012300252381039B2946638285
:10B1B400E27A656004F118000FF0F2F96369258200
:10B1C400E360EAE7A0850020A38B2EBA70B52C2596
:10B1D4000B4C00B970BD037A4668013BDBB20372C5
:10B1E400002BF7D1C3604360837A05FB03431B6ADA
:10B1F40013B198473046ECE7FFF724FFFAE700BFA6
:10B20400A085002007B50DF1070007F0E9FB114BFD
:10B2140098421CD14FF480620F4B1049C3F8B825F3
:10B224004FF40062C3F83C259DF807000DF014FEAE
:10B234000B499DF807000DF00AFE01209DF8073028
:10B24400984007F0C7FB002003B05DF804FB6FF0E3
:10B254000B00F9E70000AD0B00A002402CA0024057
:10B2640028A10240052370B5144D154E2C780134E5
:10B27400B4FBF3F303EB8303E41A0DF081FD114AED
:10B28400137823B156F82430C01A072813D90E4B6B
:10B29400D3F8141141B10021C3F81411D3F81431B7
:10B2A4002C700CB9012313702C780DF069FD46F84D
:10B2B4002400012070BD0020FCE700BFFC990020A1
:10B2C40050950020FB9900200050004048B1054BE8
:10B2D400054A1B68B3FBF2F35843044B43F00103E4
:10B2E40018477047AC83002040420F0020AD010096
:10B2F4000B460121024AC2F814160021184700BF68
:10B3040000500040014902480BF030BB08AF010077
:10B31400649500202DE9F047174B0546D3F83021FA
:10B324000C46072AD3F8343121D1023B032B02D82F
:10B33400124AD35CDBB14FF0010800264FF05029CC
:10B344000F4F0520C9F81886C7F814660DF07DFD67
:10B354004046C7F814860DF078FDC7F81466C9F89E
:10B36400186628462346BDE8F04700211847002206
:10B37400034BC3F81426F4E700F00720F2BC0100E5
:10B38400005000401FB578B10023019303930123BB
:10B394006946084802930BF0FCFA029B9B0700D114
:10B3A400039B05B05DF804FB024805B05DF804EBAF
:10B3B4000BF046BB6495002008B504480EF0FEFB74
:10B3C40000280CBF6FF01200002008BD30A8010057
:10B3D4000E4B402928BF402170B51D460C4C461821
:10B3E400B04203F1020304D1002305F811300748E9
:10B3F40070BD02781209A25C03F8022C10F8012B2C
:10B4040002F00F02A25C03F8012CE9E71B9A00206A
:10B4140055BD010030B503788BB0044607AD032B4E
:10B4240021D8DFE803F0021A1C1E12492846FCF753
:10B43400B3FE059563781E210493A3780E4A039303
:10B44400E3780E4802932379019363790093A379F7
:10B454000AF01CFA09480BB030BD0949E6E709496E
:10B46400E4E70949E2E70A212846084A0AF00EFA05
:10B47400DFE700BF10BD010032BD0100FD990020CF
:10B4840017BD01001EBD010028BD01004DCE010005
:10B4940030B50024094D0A4B85B028460293039425
:10B4A4000EF0FFFD02AB284600934FF4E1620A233D
:10B4B400044909F04DF9204605B030BD508F0020F5
:10B4C40066BD0100A8A300200146014809F0BAB9ED
:10B4D400508F0020037830B5012B13D0022B27D0D6
:10B4E4007BB90A46184B03F1100453F8045BA342DA
:10B4F40042F8045BF9D11B78137043884B731B0A21
:10B504008B7330BD0A46104B03F1100453F8045BEF
:10B51400A34242F8045BF9D11B7813704368C3F368
:10B5240007224B731B0CCB731B0A8A730B74E8E75B
:10B5340000F1100350F8042B984241F8042BF9D180
:10B5440003780B70DDE700BF6FBD010010B5044642
:10B5540009F0B8FB044B1B680BB120469847BDE8C3
:10B56400104009F0C3BB00BF80950020022838B505
:10B5740005460CBF064807480BF08DFE044620B173
:10B5840001210C300BF0DCFE2576204638BD00BFCF
:10B5940050860020A08500200F2810B50ED80D2855
:10B5A4000ED90B480BF077FE044628B101210C306C
:10B5B4000BF0C6FE02232376204610BD1328F0D0DC
:10B5C40009B10448EEE70220BDE81040FFF7CEBF02
:10B5D400D486002024860020C36802211B78024AF6
:10B5E40002480CF015B800BF8FBD0100ECAB0100A0
:10B5F40070B5C6683378B6F8014083B90F21204688
:10B6040002F05AFDF378054650B90A4A118831B957
:10B614006FEA04506FEA10501080074A137070BD2F
:10B624004372012102F066FC2846BDE8704002F036
:10B634003BBC00BFE09900209C9A002070B5C36811
:10B644001D78BDB9B3F801600F21304602F034FD16
:10B65400044638B93346BDE870400121064A07481C
:10B664000BF0D6BF294602F045FC2046BDE87040E9
:10B6740002F01ABC70BD00BFB7BD0100ECAB010005
:10B6840010B5C3680121B3F80140204602F014FD4F
:10B6940038B92346BDE810400121044A04480BF0A0
:10B6A400B7BFBDE8104002F0FFBB00BFDDBD010025
:10B6B400ECAB0100012110B50C300BF07CFEBDE8B1
:10B6C400104003780121024A02480BF0A1BF00BFD9
:10B6D40001BE0100ECAB0100014610B508480BF0B7
:10B6E400DEFD084908480EF0B1FC031E06DABDE889
:10B6F40010400121054A06480BF08ABF10BD00BF67
:10B704004C810020AC820020F88F002023BE010071
:10B71400ECAB010010B5084C0146062294F86F000A
:10B7240002F074FF38B994F86F000522BDE81040A8
:10B73400024902F06BBF10BD00800020F6BC01007E
:10B744000121024A02480BF061BF00BF40BE010064
:10B75400ECAB01000B46B0B50D8A00AF0446294698
:10B76400D868FFF735FE8AB06A46094BC2E907502C
:10B77400C2E9053440F202439384064B4FF432513C
:10B78400054842F8103F0BF050FFBD46B0BD00BF66
:10B794005ABE010005000001ECAB010070B5C5689C
:10B7A4000121B5F80160304602F086FC044638B940
:10B7B4003346BDE8704001210B4A0C480BF028BF0A
:10B7C4002B783BB9D5F80330C0F89530D5F807305D
:10B7D400C0F89930201D4FF480310BF01BFF204638
:10B7E400BDE8704002F060BBDDBD0100ECAB0100C0
:10B7F400B0B53C28044600AF1AD101F079FE6FF0D1
:10B80400800110300BF014FF0020FFF783FF054682
:10B8140030B90121114A12480BF0F8FEBD46B0BD03
:10B824004472002102F066FB284602F03DFBF5E776
:10B834006D468AB06A460B4B4FF41251C2E905308B
:10B84400094B0748D36140F201331384074B42F894
:10B85400103F0BF0EAFEAD46E0E700BF7CBE0100FE
:10B86400ECAB01009DBE0100F3D90100040000010E
:10B8740037B50446084602EBC3039A4202D16FF07F
:10B884005E0010E0114611F8085BA54211D1038A4D
:10B894005178994209D908480121084A00940BF0CB
:10B8A400B8FB6FF0150003B030BD53689847002013
:10B8B400F9E70A46E1E700BFECAB0100B9BE0100BD
:10B8C40073B53D480BF000FD0446002872D0017E9C
:10B8D400022948D008296AD1038A032B05D8374A9C
:10B8E400012137480BF094FE13E004210C300BF0D7
:10B8F40062FDFF23428806886376238AC6F30B0021
:10B904009A42A08309D0012100922D482D4A0BF0C0
:10B9140080FB2046FFF75AFC12E00F2102F0CCFB1B
:10B92400054610B9A38B284ADAE702F005FC214644
:10B934006076320B284602F08BF9284602F0B4FAFE
:10B94400224BD3F84C31002B34D0214921480EF03E
:10B954007DFB031E2EDA01211F4A194802B0BDE8FF
:10B9640070400BF055BE038A012B01D81B4AB7E780
:10B974000C300BF020FD054600780BF035FE10F07E
:10B9840002060DD140F6CE33154A164916480AF080
:10B994002EFD86F31188BFF36F8F0323184602DF51
:10B9A40004232146114A28780BF04AFEB1E70B46DE
:10B9B4000F4A95E702B070BD4C810020DBBE010048
:10B9C400ECAB0100FCBE010020BF010000800020A0
:10B9D400AC820020F88F002023BE010042BF01008A
:10B9E4005EBF010092BF0100C0BF0100B4AF0100FF
:10B9F400DDBF010010B5012104460C300BF0DBFC67
:10BA04002146BDE810400623014A00780BF018BE19
:10BA1400D4AF0100F8B50121044600AF0C300BF09F
:10BA2400CAFC0678002321463046104AFFF720FF5F
:10BA34005F3018D1258AE0682946FFF7C9FC6C46B7
:10BA44008AB06A460A4BC2E90750C2E9053640F299
:10BA540002439384074B4FF43251074842F8103F96
:10BA64000BF0E3FDA546BD46F8BD00BF04B00100E0
:10BA7400F1BF010005000001ECAB01002DE9F74F17
:10BA84000023804689461746DFF814A1DAE8EF4F11
:10BA9400CAE8E23F002AF9D1264644B943460121C7
:10BAA400404A414803B0BDE8F04F0BF0B1BD204619
:10BAB400FFF7ECFA4FF00C0B3C4D0BFB00504388A6
:10BAC40043451BD02046FFF7E1FA0BFB00504388A7
:10BAD40001210093364A434633480BF09AFADAE8D8
:10BAE400EF3FCAE8E26F002AF9D1002B54D01E467A
:10BAF400304603B0BDE8F04FFFF768BBA7420FD054
:10BB040020460BF0C3FB022304F10C08012140463C
:10BB140023760BF015FC40463A8AF9680BF021FCB9
:10BB24002046FFF7B3FA0C2707FB00504368ABB17C
:10BB3400B9F1000F12D12046FFF7A8FA012107FB43
:10BB440000504268D2E90003127A03F01F07B9409B
:10BB54005B09DAB100EB83000BF05CFD2046FFF7D4
:10BB640095FA0C2707FB00508368002BC0D02046B1
:10BB7400FFF78CFA784305F800902046FFF786FA21
:10BB840007FB0055A86808F00FFCB1E7C94300EBB8
:10BB940083000BF04DFDE1E703B0BDE8F08F00BF7B
:10BBA4004881002023C00100ECAB010084950020F3
:10BBB4004BC001002DE9F84F0123D0F80C80018A15
:10BBC40098F8004000AF03EB84038B425BD96D46C9
:10BBD4008AB06A46C2E9073105232D484FF4215142
:10BBE400C2E905042B4842F8103F0BF01EFDAD4698
:10BBF400BD46BDE8F88F4B460121274A25480BF086
:10BC040007FD013598F800309D42F1DA08EB850311
:10BC1400B3F801900F214846B3F8036002F04CFAE0
:10BC240004460028E7D000F1C0095EB1204601F0C7
:10BC3400B3FF08F0B9FB636943B95A4601211548BB
:10BC44000BF0E4FC204602F02FF9DAE7A1691A6848
:10BC54008B42626108BFA261C3F800A0226A7AB96C
:10BC6400C4E90733D9E8EF3F013BC9E8E23F002AC2
:10BC7400F8D100212046013E01F09AFFB6B2D4E784
:10BC840013602362EEE70025DFF810B0AA46B9E797
:10BC94007EC00100ECAB0100A8C00100C4C00100DB
:10BCA40073B5C5680121B5F80160304602F004FAA5
:10BCB400044640B9334601213A4A3B4802B0BDE844
:10BCC40070400BF0A5BC2B78061D1A2B19D1C37834
:10BCD400012B4ED14FF4804130460BF09BFC4204C3
:10BCE4000FD4D4F8883069460093D4F890302046B5
:10BCF400019302F05BFF204602B0BDE8704002F001
:10BD0400D3B82B78ABBB40F67A41B5F80320A4F83E
:10BD1400862093B2B5F80520A4F88C20B5F8072046
:10BD2400A4F88E209A1F92B28A4204D902211F4A93
:10BD34001D480BF06DFCB4F88C30B3F5FA7F04D3D6
:10BD440002211B4A18480BF063FC40F67641B4F814
:10BD54008E30A3F10A0292B28A4204D90221154A12
:10BD640011480BF055FC6FF4805130460BF060FC29
:10BD740014E0D6E8AF3FDB04F5D52B78202BF2D1C5
:10BD840094F89430002BEED0013B84F894304FF4B7
:10BD94002032002304F1400008F07EFD204602F02A
:10BDA40037FBA8E7DDBD0100ECAB0100DBC00100FF
:10BDB40003C101002AC10100054BD3E8AF2F02F0F3
:10BDC4000902D3E8EF1FC3E8E02F0028F9D1704738
:10BDD400D480002010B5C1E900239DF808300C463A
:10BDE4000B72FFF753F90C22024B02FB00335C6029
:10BDF40010BD00BF849500202DE9F0474FF0FF32BD
:10BE040006464FF0FF33184888460BF044FA0446C0
:10BE140038B300F10C07012138460BF091FA0123E5
:10BE240020462376FFF732F94FF00C090F4D4FF0FF
:10BE3400000A09FB005046802046FFF727F909FB5A
:10BE44000050C0F808A02046FFF720F909FB005570
:10BE540003213846C5F804A00BF07DFA068080F86B
:10BE640002802046BDE8F087A88600208495002043
:10BE740070B5064690B00B4D01AC0FCD0FC40FCD7D
:10BE84000FC40FCD0FC495E8070084E807000E2EF9
:10BE94009DBF10AB03EB860656F83C0C024810B06D
:10BEA40070BD00BFCCAC010056C10100034B01467C
:10BEB400D3F86C0182689268104700BF00800020AC
:10BEC4002DE9F843044600F10C0630460BF083FAE2
:10BED400B4F810800546B8F1010F0AD84346012191
:10BEE400194A1A480BF094FB2046BDE8F843FFF7C3
:10BEF4006DB9304602210BF05EFA074600780BF06C
:10BF040073FB10F0010906460DD140F6EE73104A9A
:10BF1400104911480AF06BFA89F31188BFF36F8F47
:10BF24000323184602DF052321460C4A38780BF018
:10BF340087FBB307D8D56369A4F8108013FA85F595
:10BF4400E560BDE8F88300BF42BF0100ECAB01002F
:10BF54005EBF01005EC10100C0BF01008CAF0100E3
:10BF640038B50C4608F0AEFE237E022B05D0082B14
:10BF740014D12046FFF7B0FB0BE0E36818780BF010
:10BF840033FBC207054602D52046FFF799FFAB07EE
:10BF9400EFD4002408F0AAFE204638BD0121054A4A
:10BFA40005480BF035FB2046FFF710F96FF0150438
:10BFB400F0E700BF77C10100ECAB01002DE9F84FB9
:10BFC4003D4C00AF04213D480BF024FB3C4DE2798D
:10BFD4003C4B2046012A88BF1D466E46FFF71AFADD
:10BFE4008AB06A46384BA346C2E905350125374B6A
:10BFF400D0611362364B4FF42351364842F8103F58
:10C004000BF013FBDFF8D080B546DFF8C890334E51
:10C01400E3790BF1070B9D4238DB94F870506E46C0
:10C024002846FFF725FF8CB06A46B4F87210B4F8BE
:10C034007630C2E907514FF400755362DFF8A0C0AF
:10C04400284BC2E905C015854FF4535142F8103FFF
:10C0540020480BF0EAFAB54694F871603046FFF7D1
:10C0640007FF8AB06A46B4F874301F49C2E907630F
:10C074001E4BC2E9051095844FF43351154842F81C
:10C08400103F0BF0D2FABD46BDE8F88F5846FFF7D3
:10C09400C1F9EA468AB06A4640F20133C2E905654D
:10C0A400D06113844FF41351484642F8108F0BF0BB
:10C0B400BCFA0135D546ABE700800020D4800020CF
:10C0C400F3D901008BC101008FC1010000020103FB
:10C0D40004000002ECAB0100040000019EC1010059
:10C0E400AFC1010006000001EDC10100050000011F
:10C0F4000048704712B50100014808F023BB00BF97
:10C104009C82002038B505460C4619B9FFF774FE29
:10C114000446D8B140F635439D420FD12046FFF77F
:10C12400C5FE054640B1034601210A480A4A0BF000
:10C134006FFA2046FFF74AF8284638BD21460748DB
:10C144000DF0CCFE0025FFF7D7FFF5E76FF068058B
:10C15400F2E700BFECAB010014C2010054810020DF
:10C16400F8B50521054640F63540FFF745FE04467F
:10C1740078B9FB231C4A1D491D480AF038F91D48AB
:10C184000AF035F984F31188BFF36F8F032318463F
:10C1940002DF04F10C07012138460BF0DCF801261C
:10C1A4000421067038460BF0D6F805800025214698
:10C1B4008670C57040F63540FFF7A4FF044688B189
:10C1C40040F20513084A0C4909480AF010F92146BF
:10C1D4000A480AF00CF985F31188BFF36F8F032323
:10C1E400184602DFF8BD00BF5EBF010083BD010039
:10C1F400C0BF010036C2010055C201005EC2010089
:10C204002DE9F0410446868B477E807AFEF736FF9F
:10C214006169054649B1637ADA0704D4436A204662
:10C224001B689B68984700236361214628460DF0EC
:10C2340060FEA37E33BB144B93F88A309B0621D552
:10C24400384602F0B9FA044638B93B46BDE8F04135
:10C2540002210E4A0E480BF0DBB9837A073B012B0F
:10C2640009D90B4802210B4A0BF0D0F92046BDE84E
:10C27400F04101F019BE01F017FE3046BDE8F0416F
:10C28400FFF76EBFBDE8F0810080002081C201008D
:10C29400ECAB0100AAC2010073B5C368D9789A78DF
:10C2A4001E8842EA0122ADF8002059791A79B4B205
:10C2B40042EA0122ADF80220D9799A79204642EA6D
:10C2C4000122ADF804201A7A5B7A012142EA0323A1
:10C2D400ADF8063001F0F0FE054658B901211C48BE
:10C2E40023461C4A0BF094F9022120460BF0DDF999
:10C2F40002B070BD694602F0D1F838B91E2120465B
:10C304000BF0D3F9284601F0CFFDF1E70E2142F2FC
:10C314002000FFF771FD04460028F3D00E210C30F5
:10C324000BF019F800230680C0F80A30BDF800307D
:10C3340021464380BDF802308380BDF80430C380B9
:10C34400BDF80630038142F22000FFF7DBFED9E797
:10C35400ECAB0100DDBD010038B502460B462B4DA8
:10C36400D5F8541109B9002038BD05F5987008F0C6
:10C374004FF80028F7D10022002305F5AA7007F032
:10C38400E1FF044668B940F6DD33214A21492248D9
:10C394000AF02DF884F31188BFF36F8F0323184636
:10C3A40002DFD5F848315BB101211C4A1C480BF06F
:10C3B4002DF9D5F84801FEF709FF0023C5F84831E7
:10C3C40020460AF097FFC5F848012046FFF76EFDA6
:10C3D4000346C8B10121134A11480BF019F9124858
:10C3E40007F0E2FF2046FEF751FE0C220F4B02FB42
:10C3F4000033588818B122461F21FFF73FFB20461F
:10C40400FEF7E4FEFFF778FE0120ADE70080002090
:10C414005EBF010083BD0100C0BF0100D6C20100A0
:10C42400ECAB010014C2010030810020849500208F
:10C434002DE9F04F87B0054616460C4600AF31B9DA
:10C44400FFF7DAFC044648B96FF0680092E0887A96
:10C45400FEF714FE534B834240F09E8001220021DC
:10C4640038460DF054FD2046FEF710FE0C23DFF88D
:10C4740038A103FB00A0876020460AF03BFF014679
:10C484004A480DF02BFDFFF737FE0EF02DF9484B0F
:10C494001A58484B9A4220D1DFF81CB143480DF09A
:10C4A40032FD002181464FF4A020FFF755FF80465E
:10C4B40088B94FF4D8735946404A414809F097FF68
:10C4C4002946404809F093FF88F31188BFF36F8F22
:10C4D4000323184602DF4C45E0D14FF4A022002389
:10C4E400384607F095FF804698B14FF4DB73334A22
:10C4F4003549334809F07BFF42462946334809F061
:10C5040076FF002383F31188BFF36F8F032318464C
:10C5140002DF2046FEF7BAFD0C2358431AF80080C8
:10C52400B8F1000F30D06E468AB06A46284BC2F884
:10C534001C80C2E90535274B4FF43251136240F297
:10C5440002439384244B254842F8103F0BF06DF8C6
:10C554002046B546A8F10908FEF738FEB8F1090FE0
:10C564000FD8DFE808F01C0E0E0B050E0E0E0E1988
:10C574006FF00B001C37BD46BDE8F08F6FF00C0068
:10C58400F8E76FF00400F5E716B134600020F1E736
:10C594002046FEF71BFEF9E76FF01500EAE76FF09F
:10C5A4006E00E7E7A88600208495002054810020CF
:10C5B4000800000060930020F1C201005EBF01008A
:10C5C400C0BF0100F9C2010055C2010019C3010036
:10C5D4005EC30100F3D9010005000001ECAB0100CA
:10C5E4000022F0B583B0114640F6034000AFFFF7D8
:10C5F4001FFF0446002840F0A180FFF7DDFB214621
:10C6040041F203003A1DFFF713FF0446002840F0EF
:10C6140095807A68B04DD16805F17803D1F80100AE
:10C62400D1F8051003C31046FEF7D0FD214641F2B0
:10C6340001003A1DFFF7FCFE044600287ED178680D
:10C64400C3685A7885F870205A88A5F872201A7938
:10C6540085F87120B3F80720A5F87420B3F80530E5
:10C66400A5F87630FEF7B2FD214641F202003A1DEC
:10C67400FFF7DEFE0446002860D1D7F804C005F1B8
:10C684008006DCF80C20531C413234461868596883
:10C69400083303C493422646F7D16046FEF796FD5D
:10C6A40001F056F90446002848D195F88A309E06D0
:10C6B40010D40221894A8A480AF0A8FF95F87C30F0
:10C6C40058063FD40121874A85480AF09FFF6FF03E
:10C6D400120433E0072140F63340FFF78DFB064692
:10C6E400002800F0EC8007210C300AF034FE1B23F4
:10C6F40003700223C0F8024084714470047122461E
:10C70400C370314640F63340FFF792FE0446A8B9A1
:10C71400012140F63140FFF76FFB0646002800F088
:10C72400CE8001210C300AF025FE2246314640F627
:10C734003140FFF77DFE04460028BFD020460C3769
:10C74400BD46F0BD002142F203003A1DFFF770FE22
:10C7540004460028F2D17B68634EDA68D2F80100FF
:10C76400D2F8051003C61846FEF730FD214642F202
:10C7740002003A1DFFF75CFE04460028DED17C6807
:10C78400E368B3F8012091B249B1D97839B1A5F879
:10C794000421DA78114606F128000DF0B8FB204692
:10C7A400FEF714FD1F2395F87C60A5F8203116F0E0
:10C7B400200617D1022140F66D40FFF71DFB044609
:10C7C40000287CD002210C300AF0C5FD012321464B
:10C7D40003704670324640F66D40FFF729FE04466A
:10C7E4000028ABD195F89C30190712D5002142F2EC
:10C7F4001C003A1DFFF71CFE044600289ED17868F1
:10C80400C368D3F80120D3F80530C5E93823FEF70F
:10C81400DDFC082142F20100FFF7EEFA044600288D
:10C824004DD008210C300AF096FD95F8D83095F8D3
:10C83400D92013F0020F14BF2F230F2312F0090F76
:10C844004FF0000218BF43F4006303701B0A214633
:10C8540043708270C270027142718271C27142F27D
:10C864000100FFF7E5FD044600287FF467AF95F863
:10C874007C30B5F804119A0624D4C9B941F20500F4
:10C884003A1DFFF7D5FD044600287FF457AFB5F8ED
:10C8940004317C684BB9E368B3F80120A5F804219E
:10C8A4009A88124811460DF032FB2046FEF78EFCA2
:10C8B400082140F60140FFF79FFA0446D0B96FF013
:10C8C40068043BE70029F3D10121094A04480AF02E
:10C8D4009DFE6FF0040431E7008000207DC3010059
:10C8E400ECAB0100ABC30100D8800020088100201C
:10C8F400CFC3010008210C300AF02DFD1023037072
:10C904008823002243700226202321468270C670A9
:10C91400027142718271C37140F60140FFF788FDD4
:10C92400044600287FF40AAF01463A1D4FF6014041
:10C93400FFF77EFD98B1504A022150480AF066FE86
:10C9440000F0C6FC044600287FF4F8AE01F03CFF7A
:10C95400044600287FF4F2AEFFF730FBEEE67B6876
:10C964006E46DC688AB0B4F80130032B96BF444AA3
:10C97400444952F823106A46D3614FF40073424885
:10C984001384424BC2E9050142F8103F4FF413519E
:10C994003A480AF04AFEB4F80120B546022AB4F82F
:10C9A400033049D1052B47D8394A52F823106E4633
:10C9B4008AB06A46D3614FF4007336481384334B0C
:10C9C400C2E9050142F8103F4FF413512B480AF015
:10C9D4002CFEB546637994F806C0032B98BF2E4A03
:10C9E400B4F80760D4F809006C468CB094BF52F8D0
:10C9F400231024496A46C2E9073C4FF40073DFF868
:10CA04009CE09385264BC2E905E1C2E909604FF435
:10CA1400735142F8103F19480AF007FEA54678689A
:10CA2400FEF7D4FB00214FF602403A1DFFF700FD4C
:10CA3400044618B11B4A7FE71249B8E77868C3680F
:10CA4400B3F80130A5F8C130FEF7C0FB95F8C1304A
:10CA54005B077FF575AF21464FF603403A1DFFF79C
:10CA6400E7FC08B1104A67E77868C3685B7885F823
:10CA7400C030FEF7ABFB63E7F2C30100ECAB01008F
:10CA84007CAF010056C1010016C40100040000017E
:10CA940064AF01002FC4010054AF010047C401007A
:10CAA4000700000174C401009DC4010010B5FFF724
:10CAB40097FD034B1B6813B1BDE81040184710BD28
:10CAC400FC95002073B52A4D0646D5F86C010DF08F
:10CAD40075F848B90121274A27480AF097FD6FF0F5
:10CAE4001204204602B070BD6FF0020105F1D400BB
:10CAF4000AF09EFD01210AF08DFD10EA010434D1F3
:10CB04001E4B1E600A4605F598700DF000FA05F5F7
:10CB1400AA700DF0D7F91A480DF0C3FA6FF00703A5
:10CB24004FF4966217491648009407F011FE16490F
:10CB340013480DF011FBD5F86C01144983681B6888
:10CB44009847044630B103460121114A0A480AF0C5
:10CB54005FFDC6E726B902B0BDE87040FFF740BDEF
:10CB640005F1C40007F0EEFDBBE76FF07704B8E70A
:10CB740000800020C6C40100ECAB0100FC9500203D
:10CB8400F88F0020B0AA0020DEC4010065BF0000B9
:10CB9400E7C40100F7B5144B054693F99B300C46E6
:10CBA400002B1DDA14B9204603B0F0BD082C4FF059
:10CBB400000142F2180001AA264628BF0826FFF702
:10CBC40037FC0028F0D1019F3246F968284601312C
:10CBD4000DF0D9FC3846FEF7F9FA3544A41BE1E719
:10CBE4006FF08500E0E700BF008000202DE9F04FE2
:10CBF40085B00026624BB0F80190198849F4704260
:10CC0400914204BF1E805F4B00F1040808BF1E78E8
:10CC1400C3780546012B08BF5B4B404600AF14BFE9
:10CC2400002493F86F400AF06FFC414668B34FF05C
:10CC3400010A07F108000AF05CFCD5F81130C7F8C6
:10CC44000130B5F81530A7F80530EB78012B31D059
:10CC54004046FEF7DFFB6C4688B06A464B4B4FF408
:10CC6400E251C2E905304FF400739383484B4948BD
:10CC740042F8103F0AF0D9FC1321A54648460AF0B1
:10CC84002FFD1437BD46BDE8F08F20460AF0A5FD00
:10CC94000346006895F804A0B8609A889B79686890
:10CCA400BA81BB73B8F8042098F806303860BA80AB
:10CCB400BB71CAE707F10800FEF72CFDEB780446C8
:10CCC400012B0AD100F014FC83466FF08001103070
:10CCD4000AF0AEFC58460AF07FFE002CB8D023467A
:10CCE400B5F8012023F8702BBA7BB868B98920679E
:10CCF4009A7100229980B5F81730A4F88630B5F8F7
:10CD04001930A4F88C30B5F81B30A4F88E30EB78C9
:10CD14006272012BE37022D187F800A0BA88BB7934
:10CD24003868A4F87B2084F87D30C4F8770000F0DC
:10CD3400DFFB237A144AC3EBC3039918D358C4F80E
:10CD44007E308B88A4F882308B7984F88430D2E9E1
:10CD5400381303F03F03194301D000F089FD072184
:10CD6400204601F0C7F826B101212046667201F081
:10CD7400C1F8204601F022FA204601F095F880E738
:10CD8400E09900209C9A00200080002003C5010047
:10CD940003000001ECAB010000B5C36889B018784A
:10CDA40020B109B05DF804EBFEF722BDB3F8012011
:10CDB4008DF80000ADF80120DA788DF80320B3F87F
:10CDC4000B20ADF81720B3F80D20ADF81920B3F8F7
:10CDD4000F20ADF81B205A7C8DF81D205868019057
:10CDE4001A899B7AADF808208DF80A30084B6846FA
:10CDF4001A689B88CDF80B20ADF80F30CDF81120C0
:10CE0400ADF81530FFF7F2FE09B05DF804FB00BF82
:10CE14000ABD010038B5042104460C300AF0CBFAEF
:10CE2400034640885D7818B122461978FEF726FE3D
:10CE340035B1044807F0B8FABDE83840FFF75CB9EB
:10CE440038BD00BF30810020B0B50446032100AFD7
:10CE54000C300AF0B0FAE3680578197840F63543E7
:10CE6400B0F80100984215D16C468AB06A460F4B5F
:10CE74000F48C2E905310F4B4FF41251D36140F210
:10CE8400013313840C4B42F8103F0AF0CEFBA54645
:10CE9400BD46B0BD10B12246FEF7F0FD002DF7D01F
:10CEA400064807F081FAFFF727F9F1E71FC50100EB
:10CEB400ECAB0100F3D90100040000013081002033
:10CEC400F8B506460024094DEF79E3B29F4202D833
:10CED4006FF0010007E0294630460AF074FC07357C
:10CEE400631C08B12046F8BD1C46EEE70080002014
:10CEF40070B5194E0622314605460DF059FB30B384
:10CF0400062142F20500FEF777FF044608B3062225
:10CF140029460C300AF025FA2146002242F2050087
:10CF2400FFF786FA044648B110F10D0F04D102212F
:10CF34000A4A0B480AF04FFC204670BD33462A6863
:10CF440043F86929AA88B280012283F86820002462
:10CF5400F2E76FF06804EFE7698000205EC6010025
:10CF64000CAC010037B504460D4689B12846184972
:10CF74000AF029FC60B9174A2968C4EBC4041151AA
:10CF8400A318AA889A80AA799A71002003B030BDA8
:10CF940068460AF0A0FA0028F8D16846FFF790FF27
:10CFA4000028F5DA0B4A0098C4EBC40410519DF82C
:10CFB4000610BDF80400A31898809971002DE4D0E0
:10CFC40012592A609A88AA809B79AB71DDE700BF69
:10CFD400FDBC01000080002070B50446B1B9C0B1A9
:10CFE4001F490AF0F0FBA0B92046FFF769FF0028AB
:10CFF4002FDA2378012B04D1A37903F0C003C02BCB
:10D0040007D00121174A18480AF0E5FB6FF0150014
:10D0140070BD164DEB79012B1ED005F1D403D3E876
:10D02400AF3FDB0707D4002CF0D020460C490AF0B0
:10D03400CAFB0028EAD1EE792146731C3046EB7115
:10D04400FFF790FF08B93046E2E7EB79013BEB715B
:10D05400DEE76FF07700DBE76FF00B00D8E700BF87
:10D06400FDBC01006DC601000CAC01000080002075
:10D074002DE9F341044640B91A4A02211A480AF03C
:10D08400AAFB002002B0BDE8F081002141F20900B2
:10D0940001AAFFF7CDF9054608B1144AEDE7019E50
:10D0A4000622D6F80C80124908F1010738460DF023
:10D0B4007FFA28B1062238460E490DF079FA18B9DC
:10D0C4003046FEF783F8DCE7D8F801303046C4F880
:10D0D4000130BB882570A4F80530FEF777F80120ED
:10D0E400D0E700BF9BC601000CAC0100B4C6010030
:10D0F4000ABD010004BD010007B56846FFF7B8FF8B
:10D10400044BD87118B169460020FFF72BFF03B018
:10D114005DF804FB00800020F0B5304D89B0EC7957
:10D12400002C53D195F8C26016F0010610D12C4A98
:10D1340002212C480AF04FFBEC711626002401272B
:10D14400EB79E0B298422CD3002B3FD000203BE097
:10D154006A4621464FF60940FFF76AF908B1224AA8
:10D16400E6E7DDF800C0DCF80C104B7823B9604624
:10D17400FEF72CF81D4ADBE78B1C02AA01F112040E
:10D18400174618685968083303C7A3423A46F7D1CB
:10D194001868344638609B886046BB80FEF716F8F2
:10D1A400CAE708AB06FB003353F8182C33F8143CD9
:10D1B4006946CDF80120ADF805308DF80070FFF711
:10D1C400D1FE01340028BBD009B0F0BD00210846CF
:10D1D40009B0BDE8F040FFF7FFBE00BF00800020AB
:10D1E400D2C601000CAC0100FEC601001EC701003E
:10D1F4002DE9F0410D4617461C46064650B14BB189
:10D204000A03037811D56D0708D501212D4A2E484C
:10D214000AF0E1FA6FF01500BDE8F0810AF0EAFACD
:10D224000028F9D101232370F6E7E9072ED5274812
:10D234000FB1AA0608D4C3EBC302825C012A13D03F
:10D2440002B922700020E7E790F8D820510635D5BE
:10D25400C3EBC302825C012A06D002B92270237890
:10D2640043F002032370EDE74FF00108072111FB9F
:10D274000381014430460AF0B5FA0028CCD184F881
:10D284000080002FDED0AB06DCD5E8E76A0712D5B4
:10D294000E49C3EBC3028E5C012E09D1072212FB97
:10D2A400036319440AF09EFA0028B5D12670EAE710
:10D2B400002EE8D1FAE70AF09DFAB3E76FF0850093
:10D2C400AAE700BF47C701000CAC010000800020A2
:10D2D40038B5104DEB7913B10024204638BDFFF763
:10D2E4000BFF044628B10C4A01210C480AF073FADA
:10D2F400F3E7EB79002BEFD1FFF70EFF044600288C
:10D30400F1D1681CFFF7F4FD04460028E5D0044A77
:10D31400EAE700BF0080002066C701000CAC0100F2
:10D3240085C701002DE9F74F0C4620219246009055
:10D33400FEF762FD0546002855D020210C300AF086
:10D344000AF82022814600210DF02AF9002609F16D
:10D35400010B04EBCA0A0023D4F8008062689342EC
:10D364000CD30834A245F6D100222946009889F846
:10D37400006003B0BDE8F04FFFF75AB898F80120F9
:10D38400B01C81181F2998F800C015D9BCF1090FE9
:10D39400C0F11F0201D1002A0CDC0121134A1448F8
:10D3A40009F024FE2846FDF711FF6FF0150003B0C5
:10D3B400BDE8F08F4FF0080CD7B2791C0BF80610BB
:10D3C400711CC9B20BF801C0D8F804105BFA80F0E4
:10D3D400019302370DF0D7F8019B3744FEB20133B5
:10D3E40008F10808BAE76FF06800E0E7A8C7010091
:10D3F400BCAB0100072208B5034909300DF0D8F889
:10D40400003818BF012008BDFDBC0100F8B5154B5C
:10D41400067804460D4683F86F60FFF7EBFF70B99A
:10D424003046114901F076F8044610B96FF00B004C
:10D43400F8BD052100F05EFD00202C60F8E704F142
:10D4440009073946304601F0A9F840B92078394631
:10D4540001F060F804460028E8D00621EAE76FF0FE
:10D464001500E5E700800020F6BC0100F8B545682A
:10D474000646690535D4046914B115F0010330D0AA
:10D48400194F3078FB7983422BD9C0EBC0000722B7
:10D49400164938440DF08CF8A8B115F0010306D1F3
:10D4A40097F87020082A02D8B2689F2A19D915F073
:10D4B400300F09D0ACB1EA060AD405F46035B5F5ED
:10D4C400603018BF0120F8BDEB0601D4002CF4D164
:10D4D400D6E902239A4204D81F2A02D9B3F5804F11
:10D4E400EBD90020EFE700BF00800020FDBC010065
:10D4F40000487047188000202DE9F04F9A46002319
:10D50400D1F810908DB0B9EB03060546934818BFC7
:10D514000126059207930AF097F90C46410740F15A
:10D5240012812046FFF7A2FF28B96FF0150B584669
:10D534000DB0BDE8F08F20460AF073F9804600284C
:10D54400F3D005F1100738460AF07EF90206C0F35D
:10D55400C01300F1FB80CDE90933CDF82B30A3686B
:10D564006068ADF82030E3686FF48071ADF8223064
:10D574000AF05BF98DF82D0078480AF068F92378F1
:10D58400774A2B7082F86F302846324661680DF175
:10D594002503FFF72DFE83460028C8D105F10902B3
:10D5A400B9F1000F18D021690868C5F80900888806
:10D5B40090808979204691710AF0D9F9626806460B
:10D5C400D0071BD4920503D4169B0BB9022E5CD151
:10D5D40002238DF8243023E0624B20461968C5F8F5
:10D5E400091099889B79918093710AF0C0F9626857
:10D5F4000646D107E6D58DF8249011E012F0100FFD
:10D604000CBF01220422D8468DF824202269116817
:10D61400CDF826109188ADF82A1092798DF82C2037
:10D624000F2142F20600FEF7E7FB8346002800F0D4
:10D6340090800F2208A90C3009F093FE002259466D
:10D6440042F20600FEF7F4FE002840F08580B9F1AE
:10D65400000F20D06368DB072BD4012128460AF091
:10D6640096F98346002866D001213F4A3F4809F0D5
:10D67400BDFC079C002C3FF45AAF2046002100F06B
:10D6840039FC204600F010FC51E70323DDF85880F4
:10D694008DF82430C4E7179B524600932846CDE901
:10D6A4000186169B05990AF0F0F883460028D1D02C
:10D6B4003DE7284607A9FFF7A9FE83460028CCD0FA
:10D6C40010F10C0F7FF433AFB9F1000F7FF42FAFDB
:10D6D400626890073FF52BAF636883F00203C3F3DE
:10D6E400400B0BF001020E2138460AF0BBF8731E02
:10D6F4005A425A41082138460AF0B4F8B11E4A4247
:10D704004A41384609210AF0ADF862680A213846D0
:10D7140002F001020AF0A6F842460B2138460AF04C
:10D72400A1F862680D213846C2F380020AF09AF823
:10D734004FF0000BFBE6079808B100F0B5FBB9F118
:10D74400000FCED1C8E76FF00A0BF0E66FF0770B4D
:10D75400EDE66FF0680BEAE68346E8E6D480002045
:10D7640000800020FDBC0100C1C70100BCAB01006A
:10D7740073B51546069A0C46CDE900322B460A4687
:10D7840001461148FFF7B8FE21460646002340F241
:10D7940001109D4202D1304602B070BD0A88824217
:10D7A40004D14A6812B11278D20702D40133083185
:10D7B400EFE7064906480CF07AFC4FF47022002388
:10D7C400034807F09DF8E6E71880002051D80000D0
:10D7D4003080002010B519480AF0FEF86FF480413B
:10D7E40017480AF034F816480AF02EF803461A06C9
:10D7F400C0F3C01021D512480AF026F8430513D50A
:10D804000E48FFF7F7FD03460E49087E93B905223B
:10D814000D4900F0FBFE044630B10021417200F0D6
:10D8240069FB204600F040FBBDE81040002103489E
:10D834000AF0ADB806222131EBE710BD18800020B4
:10D844002880002000800020F6BC010010B5FFF7FE
:10D85400C1FF034630B1BDE810400221024A03482B
:10D8640009F0CDBB10BD00BFDCC70100BCAB01009B
:10D8740073B5334809F0E8FF10F4804F304C38D0CA
:10D88400204609F0E1FF030633D4204609F0DCFF0B
:10D8940046052ED501A9A4F11000FFF7B7FD40BB42
:10D8A400A4F11000FFF7A6FD0246204609F0CCFFC4
:10D8B400C0F38031204609F0C7FF81F0010145051E
:10D8C4004FEA41011E4848BF41F0010109F0BCFF85
:10D8D400800448BF41F004011A480DF10303FFF727
:10D8E40087FC054638B101210346174A174809F059
:10D8F40086FB02B070BD012112480AF048F8019E6F
:10D9040028B9304602B0BDE8704000F0CDBA2946CF
:10D91400304600F0EFFA6FF48041094809F097FFB0
:10D924000546304600F0C0FA6B04E2D5D4E8EF3F78
:10D9340043F48043C4E8E23F002ADAD0F6E700BFAC
:10D944002880002018800020FBC70100BCAB010028
:10D9540008B50BF05DFA38B101210346034A0448C7
:10D9640009F04DFB6FF0040008BD00BF38C801008A
:10D9740004AC010008B504F0B3FF38B1012103463B
:10D98400034A044809F03BFB6FF0040008BD00BFE4
:10D9940054C8010004AC010070B505460B4B1C686B
:10D9A40044B154F8143C143C13B12846697A98479E
:10D9B4006469F5E7064C074EB44200D370BD236892
:10D9C40013B12846697A98471834F5E7349600204D
:10D9D4007CAB010094AB010010B50446FDF756FB87
:10D9E400044901EB0011204609F0DFFDBDE81040B9
:10D9F400FEF782BB00960020002270B50446D1E9F0
:10DA040001560748C1E901220CF068FA3DB13146DC
:10DA140020462B46BDE870406FF06D02184770BD7C
:10DA24008885002070B5002205460E46002300219B
:10DA34000848FDF74DFB044658B1FDF727FB064B9C
:10DA44003246294603EB00132046BDE8704009F036
:10DA540087BD70BD7C8600200096002070B5054609
:10DA6400002200230E4806F0D3FCB8B90D4B1C6805
:10DA740034B154F80C3C143C03B198476469F7E79B
:10DA8400094C0A4EB44204D32846BDE8704006F05F
:10DA940059BEA36803B198471834F3E770BD00BFBB
:10DAA40070850020349600207CAB010094AB01000B
:10DAB4002DE9F843044620270025DFF85080EFF3D2
:10DAC400118387F31288BFF36F8FE16929B983F358
:10DAD4001188BFF36F8FBDE8F883206A0A6881421A
