:1080000030C10020ADA9000017D9010099A90000D6
:1080100099A9000099A9000099A9000099A9000058
:108020000000000000000000000000003DAB000068
:1080300099A9000000000000CDAA000099A9000045
:10804000E9AC0000E9AC0000E9AC0000E9AC0000DC
:10805000E9AC0000E9AC0000E9AC0000E9AC0000CC
:10806000E9AC0000E9AC0000E9AC0000E9AC0000BC
:10807000E9AC0000E9AC0000E9AC0000E9AC0000AC
:10808000E9AC0000E9AC0000E9AC0000E9AC00009C
:10809000E9AC0000E9AC0000E9AC0000E9AC00008C
:1080A000E9AC0000E9AC0000E9AC0000E9AC00007C
:1080B000E9AC0000E9AC0000E9AC0000E9AC00006C
:1080C000E9AC0000E9AC0000E9AC0000E9AC00005C
:1080D000E9AC0000E9AC0000E9AC0000E9AC00004C
:1080E000E9AC0000E9AC0000E9AC0000E9AC00003C
:1080F000E9AC0000E9AC0000E9AC0000E9AC00002C
:10810000E9AC0000E9AC0000E9AC0000E9AC00001B
:10811000E9AC0000E9AC0000E9AC0000E9AC00000B
:10812000E9AC0000E9AC0000E9AC0000E9AC0000FB
:10813000E9AC0000E9AC0000E9AC0000E9AC0000EB
:10814000E9AC0000E9AC0000E9AC0000E9AC0000DB
:04815000E9AC000096
:1081580010F8012B11F8013B012A28BF9A42F7D0E9
:10816800D01A7047034611F8012B03F8012B002A97
:10817800F9D17047034613F8012B002AFBD1181ACE
:1081880001387047000000000022F0B5114640F6A3
:10819800034087B004F0E4FE0446002840F09D80C8
:1081A80004F0FEFA214641F2030005AA04F0D8FEC5
:1081B8000446002840F09180059A494DD16805F1A0
:1081C8007803D1F80100D1F8051003C3104603F075
:1081D800D3F9214641F2010005AA04F0C1FE044684
:1081E80000287AD10598C3685A7885F870205A888B
:1081F800A5F872201A7985F87120B3F80720A5F838
:108208007420B3F80530A5F8763003F0B5F92146A7
:1082180041F2020005AA04F0A3FE044600285CD13E
:10822800059F05F18006FA68531C413234461868E8
:108238005968083303C493422646F7D1384603F0F9
:108248009BF906F067F80446002846D195F88A306D
:108258009A060ED45721234815F000FA95F87C3079
:108268005B0643D44521204815F0F8F96FF0120455
:1082780033E0072140F6334004F0B2FA06460028FE
:1082880000F0398107210C3003F082FA452303708E
:108298000223C0F802408471447004712246C370FE
:1082A800314640F6334004F05BFE0446A8B901218C
:1082B80040F6314004F094FA0646002800F01B818D
:1082C80001210C3015F0CAFB2246314640F63140F8
:1082D80004F046FE04460028C0D0204607B0F0BD92
:1082E80000800020E332020016330200002142F22F
:1082F800030005AA04F034FE04460028EDD1059BCE
:10830800A34EDA68D2F80100D2F8051003C6184661
:1083180003F032F9214642F2020005AA04F020FED9
:1083280004460028D9D1059CE368B3F8012091B22E
:1083380049B1D97839B1A5F80421DA78114606F19E
:10834800280018F04AFB204603F016F91F2395F879
:108358007C60A5F8203116F0200618D1022140F6DD
:108368006D4004F03DFA0446002800F0C480022164
:108378000C3003F00DFA0123214603704670324693
:1083880040F66D4004F0ECFD04460028A5D195F8B0
:108398009C301F0712D5002142F21C0005AA04F0E8
:1083A800DFFD0446002898D10598C368D3F801205A
:1083B800D3F80530C5E9382303F0DEF895F8D8304E
:1083C8009E0624D50DF1120104A804F0A1FE04466E
:1083D800002882D1042142F2240004F001FA064662
:1083E800002800F0888004210C3003F0D1F9BDF892
:1083F800103022460380BDF812303146438042F2E5
:10840800240004F0ADFD044600287FF466AF95F81B
:10841800D8305C0610D5002142F22A0005AA04F0E3
:108428009FFD044600287FF458AF0598C3685B7821
:1084380085F8223103F0A0F8082142F2010004F087
:10844800CFF90446002856D008210C3003F0A0F9D3
:1084580095F8D81040F2022311F0400F08BF03230B
:10846800024688074CBF43F02C0043F00C0095F8F7
:10847800D9308F0648BF40F0400013F0090F18BFED
:1084880040F40060CE0748BF40F01000002115F00E
:108498004DFC2146002242F2010004F061FD044631
:1084A80000287FF41AAF95F87C30B5F804119806C7
:1084B80024D4C9B941F2050005AA04F051FD0446C7
:1084C80000287FF40AAFB5F80431059C4BB9E3687E
:1084D800B3F80120A5F804219A882E48114618F00F
:1084E8007CFA204603F048F8082140F6014004F0E1
:1084F80077F9044658B96FF06804EEE60029F3D11D
:108508004521254815F0AAF86FF00404E5E608218E
:108518000C3003F03DF995F8D8300246D9072DD430
:108528004FF000511D4815F001FC2146002240F68D
:10853800014004F015FD044600287FF4CEAE014644
:1085480005AA4FF6014004F00BFD68B35721144803
:1085580015F084F815F08BFD044600287FF4BDAEB5
:1085680007F092FA044600287FF4B7AEEB79002BA7
:1085780079D149210B4815F071F8AEE602A1D1E98D
:108588000001D0E7AFF3008090880002008000204F
:10859800D8800020088100203F33020010880002A4
:1085A8006733020059340200059E4921F4683148B6
:1085B800B4F80130032B96BF2F4A304A52F82320D3
:1085C80015F04CF8B4F80120B4F80330022A2AD187
:1085D800052B28D82A4A52F823204921294815F082
:1085E8003DF8D4F8091063790291B4F80710032B09
:1085F800019198BF244AA17994BF52F823201F4AB9
:1086080022480091492115F029F8304602F0B4FFBC
:1086180000214FF6024005AA04F0A2FC044620B14E
:1086280057211B4894E7154AD7E70598C368B3F85C
:108638000130A5F8C13002F09FFF95F8C1305B0703
:1086480088D521464FF6034005AA04F089FC10B1ED
:10865800572110487CE70598C3685B7885F8C030D7
:1086680002F08AFF76E708210B4815F04CFB04F06E
:1086780029FA32E690330200B01802009E30020058
:1086880098180200AE33020088180200CB330200AB
:10869800FD3302002B340200D4800020012B08B5E2
:1086A8000DD11378032033B117F08DFA054814F073
:1086B800B3FA012008BD17F089FA0348F7E76FF00D
:1086C8000C00F7E74C1E0200551E0200012B08B5EE
:1086D8000DD11378022033B117F075FA054814F05C
:1086E8009BFA012008BD17F071FA0348F7E76FF00D
:1086F8000C00F7E75F1E0200681E020008B5044878
:1087080014F08AFABDE80840012017F05FBA00BFEC
:10871800721E020070B5064688B030B10146114895
:1087280008B0BDE8704014F077BA0F4D0F4803AC9D
:1087380014F072FA14F0DBFF0FCD0FC42B680C494C
:10874800236002223346009603A805F0D7FC0146B1
:1087580020B1084814F060FA08B070BD064814F05B
:108768005BFAF9E78C1E020030150200AC1E02000D
:10877800A4160200C31E0200E91E020008B521B1BA
:10878800BDE80840054814F047BA054814F044FA13
:10879800BDE80840012017F016BA00BF0B1F020001
:1087A800271F020010B5104814F036FA0DF09EFD90
:1087B800014628B10D4814F02FFA4FF0FF3010BDD4
:1087C8000B4804F0E9FC044610B101460948F2E7F9
:1087D800013404F0010100200DF0A8FD00214FF440
:1087E800004012F01BFEF3E7321F0200581F020080
:1087F8001D8700008C1E020010B5094C0A449142E6
:1088080000D110BD11F8013B58400309E35C000199
:10881800C0B243401809205C1B01DBB25840EEE7A8
:108828009C1F020070B589B306680122304614F017
:1088380058F801460446304614F01BF8C30708D41C
:108848001349AF22134814F0FDF9AF21104814F072
:10885800F0F92146304614F022F82518294600225E
:10886800304614F006F82D1AAC4206D00849B72253
:10887800084814F0E7F9B721E8E72146304614F034
:1088880014F82146BDE8704014F050B970BD00BF1F
:10889800AC1F0200CF1F02002DE9F8430F460668FF
:1088A8001446B2684B1EB2F5004F34BF04210821AC
:1088B8003B4010D0C7F1000909EA0709494503F10F
:1088C800FF3028BF494618420CD11F46BCB90025C5
:1088D8002846BDE8F8838F420FD82146BDE8F84303
:1088E80014F066B92C492D484FF4A27214F0AAF975
:1088F8004FF4A271284814F09CF99946E6E7B2EBC8
:10890800D40FE4D9E319591A104613F0F4FF0146BD
:10891800304614F04AF880460028D8D0B36809EBEE
:10892800C005B3F5004F34BF042308231D44354464
:108938007B1E1D44B5FBF7F57D43A5EB09052946CC
:10894800304613F0CEFF2C44073424F00704A41B50
:10895800804507464FEAE40408D2024641463046BD
:1089680014F05DF84146304614F09EF8394630461A
:1089780013F095FF3844844208D2394630462246DF
:1089880014F04DF82146304614F08EF8012239468D
:10899800304613F08AFF9BE7AC1F0200CF1F02008E
:1089A800B2F5802F2DE9F0410CD2042A20D83D4998
:1089B8004FF4F9723C4814F045F94FF4F97139480D
:1089C80014F037F90823D21ACC1D114424F00704F7
:1089D80021F00701091B17294FEAD1060AD83149A6
:1089E80040F2FB12304814F02DF940F2FB11E6E793
:1089F8000423E8E70027046031463046A660E760B4
:108A080013F082FF0121421D8046304613F073FFA8
:108A18009200D51DED082844B0423AD8B8F1FF3F7E
:108A28003946A2F1100204F11000B8BF3A4618F016
:108A38007FF92A463946204613F04FFF3B463A460F
:108A48003946204613F020FFA6EB05082046394694
:108A5800012213F02AFF4246294613F03EFF2B4617
:108A68003A462946204613F00FFF3146204613F0B8
:108A780034FF43463A463146204613F005FF314657
:108A88002046012213F011FF2946BDE8F04114F0F9
:108A98000BB804494FF40372034814F0D3F84FF4A9
:108AA80003718CE7AC1F0200CF1F0200014B1B684B
:108AB800184700BF88810020014B1860704700BF2D
:108AC8008881002030B585B004460D46102200216B
:108AD800684618F02DF902238DF80230044B2A4617
:108AE80021466846019313F053FC05B030BD00BF22
:108AF800B58A000080B505460E461746984612F01E
:108B0800FFFC034618F0B8F90446DFF8189042460F
:108B180049F8003039463046A84754F8090001F0B2
:108B2800BBFF00BF080000002DE9F84F0446A38BE7
:108B380008461907164612D4022803F0070162D125
:108B4800204614F005F988B10138042800F225817F
:108B5800DFE810F0590023017E00C800F500012865
:108B68000CBF43F0100143F02001A18304F114006D
:108B780012F0D0FE002800F0AB8086F31188BFF316
:108B88006F8FBDE8F88F03F00702501F01281ED829
:108B98000020062A2768C4E9000014D13A4603E0F9
:108BA800E08B0130E0831268002AF9D123F0070333
:108BB80043F002022046A28314F0CAF890B342F0B0
:108BC8002002A2832EE023F007039AB2F2E7042AD8
:108BD80033D123F007039AB22046A28314F0B8F8E1
:108BE80010B142F02002A283A38B03F00709894544
:108BF80040F0DC80A18BCA0640F1218121F01003EE
:108C0800A38301F00701D4F81880A38BB8F1000FF3
:108C1800B9DA0022276823F00703C4E9002243F0E9
:108C28000103A383A38B03F00709894540F0BF80A4
:108C3800002FDFD00025AA4640E0854940F21B12EC
:108C4800844813F0FFFF40F21B11814813F0F1FF35
:108C580041B17F494FF4AB727E4813F0F3FF4FF4F4
:108C6800AB71F2E7236843B9794940F25712794862
:108C780013F0E8FF40F25711E7E723691D6845B98B
:108C880073494FF4AD72734813F0DCFF4FF4AD71C4
:108C9800DBE70F4688464FF00609A38B23F007034E
:108CA80043F006039BB2A383A268002A40F08180A8
:108CB800002F40F08180002D9CD0BA4643F0080375
:108CC80004F1140B5846A38312F024FE002875D132
:108CD800614940F231125F4813F0B4FF40F231119C
:108CE8005D48B3E7022908D0594940F25D12594856
:108CF80013F0A8FF40F25D11A7E7E78B47B154498D
:108D08004FF4AF72534813F09DFF4FF4AF719CE7D7
:108D180023695D6845B94E4940F261124D4813F028
:108D280091FF40F2611190E7A38BB84623F0070347
:108D380043F004039BB24FF00409A383B4E701296D
:108D480008D043494FF4B272424813F07BFF4FF406
:108D5800B2717AE7236843B93D4940F265123D484C
:108D680013F070FF40F265116FE723699D6845B9FC
:108D780037494FF4B472374813F064FF4FF4B471B5
:108D880063E70027A38BB84623F0070343F00503E6
:108D98009BB24FF00509A38386E72D4940F26B1279
:108DA8002C4813F04FFF40F26B114EE700270025C7
:108DB8007AE74FF0010A81E792467FE786F3118848
:108DC800BFF36F8FBAF1000F16D147BB15B120461C
:108DD8002249A847EFF31186202383F31288BFF3B3
:108DE8006F8F584612F088FD08BB1B498822194826
:108DF80013F028FF882173E7A1680029E5D00E68E1
:108E08000029E2D043464A462046D1F804A0D0477C
:108E18001EB1336831461E46F2E73346FAE7394653
:108E280043464A4620463F6813F0BEFFCDE7584602
:108E380012F086FDA38B23F00803A383DAE68B06E2
:108E48007FF594AE21F02003A38301F0070177E6B4
:108E5800F81F0200CF1F02001D200200698E0000CB
:108E6800F8B504460D4600F11406EFF311872023E8
:108E780083F31288BFF36F8F304612F03DFD40B97F
:108E880009490A48882213F0DDFE8821064813F0B4
:108E9800D0FE304612F054FDA5613A462046BDE8A2
:108EA800F8400121FFF740BE1D200200CF1F02003D
:108EB8002DE9F04704460F4613F066FF051E5DDBFB
:108EC80004F11409EFF3118A202383F31288BFF306
:108ED8006F8F484612F010FD804638B93349882212
:108EE800334813F0AFFE882130483CE0484612F082
:108EF80027FD4FF6FF72E38BA68B934206F0070619
:108F08003FD0022E10D135460133E383484612F094
:108F180001FD00283BD1254940F23112244813F0C5
:108F280091FE40F23111DFE7062E13D8DFE806F094
:108F3800092C1212090409006FF085054FF000088A
:108F4800E4E700233B6063687BB9C4E900777EB13E
:108F58003546F3E7174916484FF4E47213F072FEEA
:108F68004FF4E471134813F064FE1F606760EEE786
:108F7800524602212046FFF7D7FD35462846BDE870
:108F8800F0876FF00A05D9E76FF00405D6E78AF392
:108F98001188BFF36F8FB8F1000FEFD0002332466E
:108FA8003946204613F000FFE8E700BF1D20020005
:108FB800CF1F0200F81F0200F8B5054600F114069D
:108FC800EFF31187202383F31288BFF36F8F3046A6
:108FD80012F092FC38B920498822204813F032FE5A
:108FE80088211D4825E0304612F0AAFCAC8B04F01D
:108FF8000704022C12D0012C0CBF6FF004046FF090
:109008008504304612F086FC08BB134940F2311241
:10901800124813F017FE40F23111E2E7EB8B53B917
:109028000F490E4840F2EF1213F00CFE40F2EF1118
:109038000B4813F0FEFD013B9BB2EB83002BE0D104
:109048003A4621462846FFF76FFD2046F8BD87F3CC
:109058001188BFF36F8FF8E71D200200CF1F0200B1
:10906800F81F020008B54268034602F00302022A0C
:1090780081600AD0032A4FF0000103D0012A0AD1E7
:10908800596006E01868596008BD186800225A60DF
:1090980050B90020F8E706490648452213F0D2FDEA
:1090A8004521034813F0C5FD12F09AFEF1E700BF11
:1090B8004A200200CF1F02002DE9F7430F4606465B
:1090C8000821C06A13F016FF80463C68DFF8489014
:1090D800241A3C6004EA0905AC4203D8002003B016
:1090E800BDE8F08308236A462146304613F09AFE0D
:1090F8000028F4D16946304613F006FF40B1BDF8A8
:109108000230BDF8042005EA090513441D443C60FB
:10911800A4EB0804E0E700BF0000FFFF73B50446B6
:109128004FF6FF72C06A082113F0E4FE0025636859
:109138000F4EADF800208DF80620A289191833408B
:109148001344181A60606846ADF80210ADF8045070
:1091580013F0C7FE6946204613F096FF2046211DEE
:1091680013F099FE284663683340A36002B070BDCF
:109178000000FFFF2DE9F047044688B000F114070E
:10918800384617F0F1FBA06A8368DB689847E0620D
:1091980048B94521AB4814F061FA6FF01505284627
:1091A80008B0BDE8F087A06A8368DB689847036861
:1091B800013B1F2B02D94521A348ECE7A06A21688F
:1091C80005AA16F0E1FB10B14521A048E3E7A589FF
:1091D8002DB1069BB5FBF3F203FB125515B14521E2
:1091E8009B48D8E7E389012B02D845219948D2E763
:1091F800E36A009593F805904FF0FF334FF0FF3284
:10920800384610F0FBF90821E06A13F073FEA8460F
:109218000646E3891FFA85FA534508D8E38943458A
:1092280023D1384610F0A0FA6FF02C05B7E7A189D2
:109238002B04891B13FA81F14A4608232046009122
:1092480013F0FEFD78B16946204613F024FE08F1BC
:10925800010808234A46204600991FFA88F813F0A7
:10926800EFFD0028DAD00135D3E753450BD100993B
:1092780008234A462046891B13F0E2FD18B96946BF
:10928800204613F008FE69462046FFF715FF0546FD
:1092980018B1384610F068FA81E7009B4FEA134886
:1092A8004FEA08486360C4F80880D4E9011399427A
:1092B8000FD30823204601AA13F0B4FD0546002861
:1092C800E7D101AB13F8012B91453CD10135082DAD
:1092D800F8D1636869461B0C1B042046009313F001
:1092E800DAFD4A462046A389009913F0A9FD051E18
:1092F800CFDB636869D04FF6FF7906EB0308A389D3
:109308001FFA88F29B1B9A42CDF8008037D3492177
:10931800514814F0A3F92046616813F0C9FD0546C9
:109328000028B6D163684D4AA18913400B44A3EBCA
:109338004603636013402046A36013F0CDFE054644
:10934800002D5ED0A5E7204601A913F0DDFD626877
:1093580010B9921B6260A8E7BDF80850BDF8061066
:10936800E06AC4F80880294413F0C4FD40449042E0
:10937800A060EED1002DECD06FF01C057AE0082338
:109388004146204603AA13F04DFD0546002880D12A
:10939800204603A913F0B8FD38B1BDF80C304B4591
:1093A80003D1BDF81030002B6AD0B044A7E74A4675
:1093B80020465B1A13F044FD051EFFF66AAF08D07D
:1093C800E26AA36812681344A360D4E901318B42AE
:1093D800EDD86168A38901EB46029A42B0D1DFF863
:1093E8007C80A26801EA08039A42A9D0204613F0BB
:1093F8005FFD054600287FF44CAF636803EA080365
:10940800A360A389A288A3EB46039A422ED03846CC
:1094180010F0AAF901234921E28911482374A3898C
:1094280014F01CF96268492193B20E48120C14F02A
:1094380015F9A268492193B20B48120C14F00EF9E1
:109448000025ACE689200200B0200200D2200200EC
:10945800EF20020008210200792102000000FFFF2E
:10946800302102004C21020063210200204613F043
:109478001CFE0546384610F077F9002DCAD08EE656
:109488004921084814F0EAF8636869461B0C20462D
:109498001B04009313F0FFFC2046009913F008FD0D
:1094A8004DE700BFA52102002DE9F04F1D46037CC2
:1094B80091B00446029100924BB94521634814F0DB
:1094C800CDF86FF00C06304611B0BDE8F08FC26AD7
:1094D8000821104613F00EFD29460190104613F09E
:1094E80009FDA389019A0746A3EB82039D4200F276
:1094F800A9801DB1009B002B00F0A4806368059330
:10950800204606AA05A9DDF814A013F03AFD064680
:109518000028D8D1BDF81830029A934206D0626864
:10952800059B9A42ECD1002D36D1CCE7204606A9FE
:1095380013F0EAFC0028F2D0BDF81A80BDF81C3000
:1095480045B3AB4228D14FEA1A4A4FEA0A4AD044F7
:10955800AA46E36ADDF800B01B685B4203F020030B
:109568000393DDF80C904146D14528BFD1462046EB
:109578004B4608AA13F056FC00284AD14A465846DA
:1095880008A917F0DDFB38B9BAEB090AC844CB447F
:10959800E7D198E7002B96D0002F3DD1B84604F1CB
:1095A800140A4FF0FF324FF0FF33504610F026F800
:1095B800E3899E4243D0A168626808EB01039A429E
:1095C8002FD3029B2046ADF82030FF23009A8DF858
:1095D80026302B46ADF82210ADF8245013F01BFDB1
:1095E80029460746E06A13F085FCA3680344A36094
:1095F80057B908A813F075FC204608A913F044FDD4
:10960800002814BF07462F46504610F0ADF83E46D6
:1096180059E7C1DC064656E7019B1F441FFA87F845
:10962800BDE72046FFF77AFD07460028ECD1204623
:1096380013F052FD07460028E6D10136B8E76FF06F
:109648001B07E1E76FF015063DE700BF7020020039
:109658002DE9FF471E46037C04460F469046BDF899
:10966800309043B92C48452113F0F8FF6FF00C00F7
:1096780004B0BDE8F0870821C06A13F03BFCA38959
:10968800A3EB40039E4243D80025D4F804A0CDF8AC
:1096980004A0A9455146DDF804A009D263685345E2
:1096A8001ED1BDF80830BB421AD06FF00100DFE7C9
:1096B800204602AA01A913F064FC0028D8D1BDF8FD
:1096C8000830BB4206D1204602A913F01DFC08B1A0
:1096D8000135ADB26268019B9A42DAD15146E0E7A2
:1096E800BDF80C30002BE0D0A945DED8BDF80A0043
:1096F800090CB3424FEA014128BF334601444246B0
:10970800204613F08FFB0028B2D1BDF80C00AFE75C
:109718006FF01500ACE700BF7020020010B530B93B
:109728000B48452113F09AFF6FF0150010BD8368B0
:1097380033B90848452113F091FF6FF00400F5E7AD
:109748001B6813B1BDE8104018471846EEE700BF84
:10975800C6210200DC21020010B530B90B484521B2
:1097680013F07CFF6FF0150010BD836833B908480B
:10977800452113F073FF6FF00400F5E75B6813B140
:10978800BDE8104018471846EEE700BFC6210200A2
:10979800DC21020070B508B101B132B90B4845218E
:1097A80013F05CFF6FF0150070BD84680CB1E568BC
:1097B80035B90748452113F051FF6FF00400F3E76E
:1097C80041F8040BE368BDE870401847FF21020028
:1097D800DC21020010B5044630B91048452113F0C9
:1097E8003DFF6FF0150010BD006830B90C484521E9
:1097F80013F034FF6FF00100F5E783680BB11B69C4
:1098080033B90848452113F029FF6FF00400EAE74F
:10981800616898470028E6D12060E4E7302202001A
:1098280046220200DC21020070B51346044630B916
:109838001048452113F012FF6FF0150070BD006845
:1098480030B90D48452113F009FF6FF00100F5E725
:1098580082680AB1956835B90848452113F0FEFEBB
:109868006FF00400EAE70A46AC466168BDE870405C
:10987800604700BF3022020046220200DC210200BD
:10988800034A13680BB9526813600020704700BF81
:109898008C81002030B50C460E4985B00291D0F875
:1098A800D4110546CDE9003100F1F0014FF0FF3346
:1098B80020460EF009FF50B9012384F86C30D5F822
:1098C800D03123B1204605B0BDE83040184705B077
:1098D80030BD00BF81D3010038B50C46114605469E
:1098E80013F04CFD034638B92846044913F046FDE9
:1098F80003460020236038BD0120FBE741460200F3
:109908002DE9F04F012381460569466887B005F5C2
:109918005F77D7E8EF2F002A03D1C7E8E13F002996
:10992800F7D10CBF1A46002240F0B080B368B16A84
:1099380005F5F8781C1F104613F0A7FD84426ED871
:10994800013A00F09D80B2FA82F24FF00044D44010
:1099580072682046073222F00302C5F83C22B16A39
:1099680013F093FDC5F84002B36A404663430333DE
:1099780023F0030302EB4302230103EB44030933FF
:1099880023F0030303EBC403C5F834221A44083256
:10999800C5F830227368C5F83842C5F82C323D4BFB
:1099A800C5E9AD63316800F0E5F90446002834D113
:1099B800D9F810B0D9F804A0D9F800300BF53479EB
:1099C800059004934846DAE90734012B08BF103C98
:1099D80010F06AFCDAF824002F4904AB01EB80216F
:1099E8004FF4806248460093234610F073FC2B49DD
:1099F8000BF5307010F024FBDAE9050183685C6828
:109A08004CB15B46264AA047044630B9DAE905015D
:109A180083681B692BB96FF05704002129E00132D4
:109A280089E70122984704460028F6D11D4B2846AD
:109A3800C5F8D0311C4BC5F8D4311C4B0393D5F86D
:109A480040320293D5F83C32CDE9008305F5117315
:109A5800B26AD5F8781300F055F904460028DCD12D
:109A680005F1F0000EF0D6FE0028C5F880030ADBE9
:109A78000221384613F0B6FC204607B0BDE8F08F47
:109A88006FF00B04C9E76FF01504C6E76FF07704B1
:109A9800F2E700BFD7D30100989B0020BDD3010097
:109AA800B1D30100B99A000069D501001DD40100A5
:109AB80013B5044640B100230122CDE90032074B1B
:109AC800D0E909120EF0D4FD236F1B6823B1606F33
:109AD80002B0BDE81040184702B010BD4146020070
:109AE80013B504460846216901F55F71D1E8AF1F37
:109AF800022910D193B1A0B10121CDE9003113465B
:109B0800D0E909120EF0B4FD074B984208BF6FF078
:109B18000B0002B010BD6FF00F00FAE76FF04C00B9
:109B2800F7E76FF00100F4E72EF8FFFF2DE9F347A0
:109B380089461546066906F55F73D3E8AF3F022BE1
:109B480064D1136823B96FF0150002B0BDE8F0873F
:109B58001B78002BF7D0D6F878A3BAF1000F36D1CE
:109B680006F5EC774FF0FF324FF0FF3338460FF031
:109B780045FD30462A6801A9FFF7AEFE019C8046E4
:109B88001CB9384613F02CFCDDE705F10803236700
:109B98006B6984F86CA06367646460B1384613F03D
:109BA8001FFC21463046A36E2A68FFF773FE00208B
:109BB800C9F80040C9E71F22296804F1480017F0D6
:109BC800E1F8384684F8678013F00AFCEFE730467E
:109BD800104913F0D3FB04460028B4D0002705F140
:109BE800080303676B6980F86C70436740641F2241
:109BF8002968483017F0C6F822460121304684F813
:109C0800677000F061F80028D1D09CE76FF00F0072
:109C18009BE700BF4146020010B50C46006900F5FD
:109C28005F73D3E8AF3F022B0FD189B10A4900F522
:109C3800307010F0C9FA204616F04FFC7822002147
:109C4800204617F075F8002010BD6FF00F00FBE7F5
:109C58006FF00100F8E700BF309200202DE9F04FC7
:109C680005460E4690460027D0F8C4A085B0AAF550
:109C7800BE7421463046FEF76BFAE0B9114BA4F1E9
:109C8800480B0293DAF810303246CDE900832946B2
:109C98004FF0FF335846AAF5E2790EF015FD60B98A
:109CA8007823012203FB079383F86C20DAF80C3041
:109CB8000BB158469847783417B105B0BDE8F08F16
:109CC8000127D6E797D501001FB5144690B18AB190
:109CD800012912D10A4B00F1F0010293D0F8D431D6
:109CE800483201934FF0FF33204600930EF0ECFC0E
:109CF80004B010BD6FF01500FAE70020F8E700BFC8
:109D080097D501002DE9F04387B00E46DDE90E81B5
:109D18001446DDE910251F4630B329B3DFF850C0DB
:109D280000F1F009002D08BF65469EB9CDE903444E
:109D380000F5E2742046059616F087FD03ABCDE9E1
:109D480000432A463B46414648460EF011FF07B0FD
:109D5800BDE8F083002241460E9248462A4607B0E5
:109D6800BDE8F0430FF054B86FF01500EFE700BFFF
:109D7800659C0000F0B504462B4A87B004AB0E463C
:109D880092E8030083E80300002C49D018460EF03F
:109D980075FB0546B0B94FF0FF33E16C04F1540789
:109DA800A163CDE9010000933846236D04F1380220
:109DB80016F045F8A06C13F019FCC4F8BC0020B9E3
:109DC8006FF00B05284607B0F0BDA06C13F00EFC31
:109DD800C4F8C0000028F3D0236CD4F8BC10C4F831
:109DE80090300423C4F89430C4F8AC300223E36202
:109DF8000E4BB4F84820C4F88C10616C236204F14F
:109E08008C03C4F8A070A4F89820C4F8B870C4F8FB
:109E1800A810A4F8B020C4F8A400A6612363D1E771
:109E28006FF01505CEE700BF44150200E0160200EA
:109E3800014B0360002070470C17020070B5104BEF
:109E48000D461C68B4B10F4B196800238B4202DB26
:109E58006FF0010070BD224612F8106B864202D0E6
:109E680014460133F2E7E06816F02CFD28B1002013
:109E78002C60EFE76FF00C00ECE76FF01200E9E7F9
:109E8800FC8100208417020010B5436888B0029353
:109E980083680C46CDE9033200230A68C068CDE91F
:109EA8000623054901AA059315F072FD079808B91C
:109EB800059B236008B010BD81D6010002460B4601
:109EC80001480FF09BBB00BF7485002001480FF0CC
:109ED8004BBC00BF748500202DE9F0410E4B0546B0
:109EE8001C680E4617469CB14FF0FF304FF0FF310B
:109EF800FFF7E4FF63682046D3F8108032463B46FC
:109F08002946C0470446FFF7E1FF2046BDE8F08137
:109F18006FF00104F9E700BF5892002000230360A6
:109F2800044B5A6812B9C3E90000704710605860C2
:109F3800704700BF5C920020014B1860704700BF5B
:109F480058920020002330B585B0019005464FF0A7
:109F5800FF314FF0FF30CDE90233FFF7AFFF094B78
:109F68001C6844B9284600F0D5F80446FFF7AEFF50
:109F7800204605B030BD636820461B6801A9984794
:109F88002468EEE75C9200201FB5CDE901014FF08F
:109F9800FF304FF0FF310392FFF790FF074B1C682B
:109FA80024B9FFF793FF204604B010BD636820462C
:109FB8001B6801A998472468F2E700BF5C9200205B
:109FC8000022024BC3E90022704700BF5C920020C8
:109FD8000022024BC3E90022FFF7F2BF649200207F
:109FE8002DE9F74307460C4609B100230B6000260C
:109FF800234DDFF890904D4520D9234923489C22D2
:10A0080012F020FE9C21204812F013FED5F80080A3
:10A018003846414601AA13F071FB50B116B954B93C
:10A028002E4606E000224046316813F067FB002800
:10A03800F5D11835DFE7019B2360F1E7E6D3144B30
:10A048001D68C5B155F8188C3846414601AA183D17
:10A0580013F054FB50B116B954B92E4606E000224D
:10A068004046316813F04AFB0028F5D1AD69E8E7AE
:10A07800019B2360F1E7304603B0BDE8F08300BFE1
:10A08800A01402003015020070220200CF1F020047
:10A09800649200202DE9F341DDF8208004460D4646
:10A0A80016461F460190B8F1000F07D0D8F80010E7
:10A0B800C1B9D8F804E0BEF1000F1CD1204601A9AF
:10A0C800FFF78EFF98B13B46D0F80C803246294600
:10A0D8000198C047034650B1224645210C4813F069
:10A0E800BDFA04E001AA13F009FB0028E1D1002021
:10A0F80002B0BDE8F081D8F8083032460893294606
:10A108003B46F446019802B0BDE8F041604700BF05
:10A11800A22202002DE9F04780464FF000470026B2
:10A12800DFF8BC90DFF8BCA03D462F4C4C452CD93D
:10A138002E492F4840F2111212F084FD40F21111FD
:10A148002A4812F076FD2F46EEE7B8F1000F03D14A
:10A1580022694AB91834E9E700224146206813F019
:10A16800CDFA0028F4D1F5E76368BB4205DDAF42BC
:10A1780009D09D42A8BF1D46ECE7EBD19047002EC1
:10A1880008BF0646E6E71D46E4E7DED3DAF80040F6
:10A1980004B3183CB8F1000F03D122694AB9A46985
:10A1A800F6E700224146206813F0A8FA0028F4D107
:10A1B800F5E76368BB4205DDBD4209D09D42A8BFF3
:10A1C8001D46ECE7EBD19047002E08BF0646E6E7B0
:10A1D8001D46E4E7AF42B6D13046BDE8F08700BF80
:10A1E8003015020064920020A014020070220200C0
:10A1F800CF1F020038B50C4D4FF0FF334FF0FF3240
:10A208000A480FF0FBF92B783BB9FFF7E1FE00F0A5
:10A218006DF8044610B901232B70002403480FF091
:10A22800A3FA204638BD00BF489800207485002056
:10A238002DE9F04706468946048FDFF8ACA00134C3
:10A2480098B0A4B200F10807651EADB2B5F5004F8D
:10A2580047D04A23294605AA384613F00EF804F5D4
:10A268007F543F34A4B280462146012338460DF17D
:10A278000B0213F002F8B8F1000F014610DC0028B9
:10A2880010DC338FAB4209D132466B1E22F8383FBF
:10A298004FF4004102233846FFF706F92C46D3E76E
:10A2A800002808DC2946384612F0E3FF21463846E4
:10A2B80012F0DFFFE5E708F160030DEB0308002368
:10A2C800524608F84C3C05A8CDF8009003AB03971C
:10A2D800ADF81040FFF7DEFE0028DFD018B0BDE86B
:10A2E800F0870020FAE700BF75D701007FB501238A
:10A2F800694605200193FFF7A1FD044660BB0520D0
:10A3080002AA01A913F0DAF9044610B110F10C0FF2
:10A3180022D10399B1F5803F23D200231846009A31
:10A328009468084484421AD30133082BF9D10E4D9E
:10A33800A982EB8253682846AB60D368EB6313F0BD
:10A34800ADFA044640B9094E28466E60FFF7E6FDAF
:10A3580028466E60FFF7F0FD204604B070BD9BB242
:10A36800E5E76FF02004F7E76C920020B881002041
:10A3780008B5044812F050FCBDE80840024812F045
:10A388004BBC00BFD2220200072302004B1E5942D9
:10A398005941014B197070474A98002008B5012BA4
:10A3A800BDF808100CD171B90A4B1B680BB9012014
:10A3B80008BD1078012809D800F001009847F6E791
:10A3C8006FF00C00F4E76FF00600F1E76FF0120091
:10A3D800EEE700BFAC9200202DE9FF411F460D4B70
:10A3E800054658680C46164680B1D1F80C8080475F
:10A3F800094B324618700123CDE90183BDF8283096
:10A408002146009328463B4607F04CFC04B0BDE8C3
:10A41800F08100BFAC9200204998002037B505466E
:10A428000C46C9B18B6814480093D1E90023452133
:10A4380013F014F9636945210093D4E903230F4805
:10A4480013F00CF94521E2690D4813F007F945218D
:10A45800A2690C4813F002F9012D06D1EFF3058229
:10A4680045210948103A13F0F9F82146284603B067
:10A47800BDE830400EF0FCBC91230200C523020069
:10A48800F92302000D2402004024020030BFFFF728
:10A49800FDBF00BF2DE9F04105460B4EDFF82C80CB
:10A4A800324606EB0807CC1B2046094916F019FC72
:10A4B800A01942460021083C16F03AFC6C6707F1E7
:10A4C8000800BDE8F08100BF00000000080000009F
:10A4D80030150200074A936893F90E10002907DB2C
:10A4E800526993421FBF044A536843F08053536034
:10A4F800704700BFC097002000ED00E010B5244C65
:10A508004521244813F0AAF8A36A99013ED52248A8
:10A51800452113F0A3F81E20A36ADA0104D51F48C9
:10A52800452113F09BF81F20194CA36ADB0204D5C0
:10A538001B48452113F092F80220A36A1C0304D596
:10A548001848452113F08AF82120114CA36A5903B1
:10A5580004D51548452113F081F82220A36A9A03EF
:10A5680004D51248452113F079F82320084CA36A32
:10A57800DB0304D50E48452113F070F82420A36AA4
:10A588006FEA03436FEA1343A36210BD1D20C3E7BC
:10A5980000ED00E058240200752402008D2402001A
:10A5A800AC240200DB240200FE240200282502005D
:10A5B8004725020070B5284C06460D462748452118
:10A5C80013F04CF8A36AD9043BD52548452113F06C
:10A5D80045F81720A36A1A0504D52248452113F027
:10A5E8003DF818201C4CA36A9B0511D51E4845212F
:10A5F80013F034F8A26BA36A180408D545211B4848
:10A6080013F02CF81EB1A36A23F40043A3621920A7
:10A61800114CA36A590504D51548452113F01EF8B5
:10A628001A20A36ADA050ED51248452113F016F848
:10A638001B20094A936A43F47F43936200232B70DB
:10A6480070BD1620C6E7A36A9B04F2D50A484521C7
:10A6580013F004F81C20ECE700ED00E07725020079
:10A6680092250200A8250200C0250200DE2502006E
:10A67800F8250200182602003526020070B5324C73
:10A6880006460D463148452112F0E8FFA36AD9066F
:10A6980048D52F48452112F0E1FF1120A36A1A0777
:10A6A80004D52C48452112F0D9FF1220264CA36A64
:10A6B8009B0711D54521284812F0D0FF626BA36A89
:10A6C800190608D54521254812F0C8FF1EB1A36A0E
:10A6D80023F08003A36213201B4CA36ADA0704D576
:10A6E8001F48452112F0BAFF1420A36A9B0604D51F
:10A6F8001C48452112F0B2FF1520134B9A6AD60662
:10A7080002D49A6A94070FD59B6AD9060CD51649C4
:10A71800164840F2331212F095FA40F233111248FB
:10A7280012F087FA1020B9E7074B9A6A920642BFDF
:10A738005A6A22F400525A629A6A42F0FF029A62F6
:10A7480000232B7070BD00BF00ED00E069260200F9
:10A7580084260200A8250200BC260200D926020091
:10A76800F42602003526020018270200CF1F020037
:10A778002DE9F043714B0546D3F804900F46164671
:10A7880000238BB0C9F3080883F31188BFF36F8FD8
:10A7980002F07F43B3F17F4F0AD069494FF48562D5
:10A7A800684812F04FFA4FF48561654812F041FA93
:10A7B80012F00104F1D1530603D4100707D401277E
:10A7C80007E04521604812F049FF710700D53D4672
:10A7D8000027002DE1D00026A8F103038DF80760BB
:10A7E800092B00F29880DFE803F0058B8F769696A8
:10A7F800969696934521554812F030FF8DF80760DC
:10A808004E4EF36A9A0704D54521514812F026FFA7
:10A8180033E0F36A002B02DA45214E48F6E7F36A83
:10A828005B0064D545214C4812F018FF7369AA698A
:10A8380043F480737361BFF34F8FBFF36F8F7369F6
:10A8480032F8022C23F480737361BFF34F8FBFF388
:10A858006F8F4DF602739A4209D0B36ADBB263B3C5
:10A8680001200DF10701FFF709FF044605E0452126
:10A878002A683A4812F0F2FE2C689DF80730CBB9E6
:10A8880002AA05F12006134628686968083503C33B
:10A89800B5421A46F7D1099B002F49D0C3F30802E5
:10A8A80022B96FEA53236FEA43230993204602A98A
:10A8B800FFF7B4FD0BB0BDE8F083B36A13F47F4F24
:10A8C80005D001200DF10701FFF774FECDE7B36A4B
:10A8D800B3F5803F02D3FFF711FEC6E7184940F2EF
:10A8E800FA22184812F0AEF940F2FA215DE714494D
:10A8F80040F2FE22134812F0A5F940F2FE2154E777
:10A9080000200DF10701AEE700200DF10701DBE79C
:10A91800452113487AE7134919F4F87F124A134876
:10A9280008BF0A46A8F11003452112F097FEA4E7D4
:10A9380023F4FF7323F00103B7E700BF00ED00E045
:10A9480018270200CF1F020078270200A027020064
:10A95800BC270200E2270200F5270200192802009E
:10A968003A2802004A2702005F27020063280200F3
:10A97800064B5A6942F010025A615A6942F48062E1
:10A988005A615A6922F008025A61704700ED00E0E6
:10A99800EFF30880EFF3098101B57246FFF7E8FE8F
:10A9A80001BD00BF002080F31488BFF36F8F002023
:10A9B80080F30A8880F30B880F4880F3088815F025
:10A9C8007FF900200D490860BFF34F8F00F03EF873
:10A9D800202080F311880A484FF40061401880F362
:10A9E8000988EFF314800221084380F31488BFF329
:10A9F8006F8F00F007F9000030C1002094ED00E0EF
:10AA0800F0AF0020BFF34F8F0549064BCA6802F428
:10AA1800E0621343CB60BFF34F8F00BFFDE700BF79
:10AA280000ED00E00400FA05002318460649D1F8B5
:10AA38009020C2F30722934200DB7047C1F8983098
:10AA4800C1F8A0000133F6E700ED00E010B572B6DA
:10AA5800002484F31388FFF7E7FF23464FF0FF3005
:10AA68000C4A03F120010133102B42F82100F8D1E0
:10AA780000234FF0FF30074A03F160010133102B28
:10AA880042F82100F8D162B6BFF34F8FBFF36F8F42
:10AA980010BD00BF00E100E0084B9B6883420BD16A
:10AAA800EFF3058343B1064B5A6842F080525A606F
:10AAB8005A6A22F400425A6210F028BDC09700205A
:10AAC80000ED00E018498A6882F881E04FF0300014
:10AAD8001044EFF3098C80E8F01F202080F31288DF
:10AAE800BFF36F8F114F4FF000664A698A603E606E
:10AAF8004FF07404141920680D4C206092F981E01D
:10AB0800906F0023936780F3118802F1300090E87A
:10AB1800F01F8CF3098802F1000004B512F004FF5D
:10AB2800BDE8044070470000C097002004ED00E035
:10AB3800B49200201EF0040F0CBFEFF30880EFF36F
:10AB48000980816911F8021C0229FFD001B57246FB
:10AB580012F0D9FE01BD00BF40B2002807DB012377
:10AB68004109034A00F01F00834042F82130704732
:10AB780000E100E040B200280CDB0122064943094D
:10AB880000F01F008240203341F82320BFF34F8F8D
:10AB9800BFF36F8F704700BF00E100E0054B42092B
:10ABA80053F82220012300F01F0003FA00F01040A0
:10ABB800704700BF00E100E00131072908B508D956
:10ABC8000D490E48582212F03DF858210A4812F053
:10ABD80030F840B20028ACBF00F16040084B4FEAA3
:10ABE8004111C9B2ABBF00F5614000F00F0080F819
:10ABF8000013195408BD00BF7B280200CF1F0200B4
:10AC080014ED00E00B4A08B50B4B22F07F029A6066
:10AC1800BFF34F8FBFF36F8FD3F8882022F47002F1
:10AC2800C3F888200EF010FA10F092FE00F04CF8ED
:10AC38000EF04AFA0080000000ED00E042F8203CE7
:10AC4800009B0D4942F81C3C019B21F0010142F890
:10AC5800183C029B42F8081C42F8143C4FF08073E1
:10AC680042F8043C002383674FF43C43203A0265D2
:10AC7800C0F88030704700BFFD8A000000B50B4B5C
:10AC880015469860426F0A4B0E461A60436E83F36E
:10AC98000B882C4686F309880020064B98472046E7
:10ACA800002100220023044C204700BFC097002049
:10ACB800B492002039D90100FD8A00001022014B0E
:10ACC8001A61704700ED00E0002320210348C218F4
:10ACD8000133452B82F80013F9D1704700E100E0F9
:10ACE80008B5EFF30583064A103B02EBC30152F89F
:10ACF800330049688847BDE80840FFF7EBBB00BF51
:10AD0800481002001FB5094C094A23460121094889
:10AD180000F00EF900230393074B0121E41A01A860
:10AD28000193029400F01EF904B010BD0000072042
:10AD380000800020F81702007087002010B50C7AF8
:10AD48000B6804F01F0223F01F031A43CB68640941
:10AD580023F01F03054943EA440343F00103C1F804
:10AD68009800C1F89C20C1F8A03010BD00ED00E0AB
:10AD780010B50A4B0446D3F89030C3F30723013BC0
:10AD8800984208D902464521054812F067FC6FF041
:10AD98001504204610BDFFF7D1FFFAE700ED00E0EB
:10ADA800B62802002DE9F04F8946144606464FF0B2
:10ADB8000008514D85B0C84527DAD6F804A0BAF185
:10ADC800000F44D0BAF11F0F18D91AF01F0F15D170
:10ADD800D6F800B01BF01F0F10D1584612F0E4FD52
:10ADE80007460AEB0B00013812F0DEFD874210D04F
:10ADF8006FF015073A464521404802E04246452192
:10AE08003F4812F02BFC6FF01504204605B0BDE852
:10AE1800F08F17F1160FEDD0BC42EBDDC5F8987036
:10AE2800D5F89C10C5F89870D5F8A03021F01F010E
:10AE380043F01F0BD6E900321A44994202F1FF3A57
:10AE48001DD1D34507D13146F8B212F0B6FD08F14D
:10AE580001080C36AFE73146C5F89870D5F89C3034
:10AE680022F01F0203F01F031343C5F89C30E0B221
:10AE780012F0A3FD10F1160FC5D0441CE7E7C5F882
:10AE88009870D5F8A020013B23F01F0302F01F02A1
:10AE98001343D3453146E0B2C5F8A030E8D012F0EC
:10AEA8008CFD10F1160FAED0C5F89870D5F89C201F
:10AEB8009DF808300BF1FF3B62F304038DF808306E
:10AEC800D5F8A0309DF808205B0863F347128DF889
:10AED8000820D6E900321344009323F01F035B4493
:10AEE800A3EB0A03013023F01F036946C0B20393A2
:10AEF800FFF73EFFBEE700BF00ED00E009290200B2
:10AF0800E12802000522044BC3F89420BFF34F8FB9
:10AF1800BFF36F8F704700BF00ED00E0BFF35F8F96
:10AF28000022024BC3F89420704700BF00ED00E0F8
:10AF380010B5094C2278FFF735FF207016300AD17A
:10AF48000649074840F26F1211F07CFE40F26F117B
:10AF5800024811F06EFE10BD4B9800203129020006
:10AF6800CF1F02002DE9F74F2E4D8A4606464FF0B7
:10AF78000008AB462C4FD04502DB03B0BDE8F08F8C
:10AF8800D6F80490B9F1000F47D03168084601910E
:10AF980012F00AFD0199044609EB0100013812F08C
:10AFA80003FD84424FF01402204B10D002FB08F33B
:10AFB8006FF015024BF803201D491E4840F27F121E
:10AFC80011F040FE40F27F11194811F032FE14F1E1
:10AFD800160F2C60F0D01978A142EDDD02FB08B005
:10AFE800C7F89840C7F89840D7F89C4000F1080186
:10AFF800007B64F304000871D7F8A0000C794008BE
:10B0080060F347140C71D7F89C1021F01F01696098
:10B01800D7F8A01021F01F01296108F101081435A3
:10B028000C36A8E7B892002000ED00E04B9800200D
:10B0380031290200CF1F02002DE9F0414E494F4C43
:10B04800D1F890302568C3F307239D4286B00AD90A
:10B058004B494FF4D3724B4811F0F4FD4FF4D371C0
:10B06800474811F0E6FD0020FFF758FF464BC1F8AE
:10B07800C03085421AD1454C01A82570FEF7D8FE8C
:10B08800002506464FF04108414FAE4215D1002039
:10B0980023783949D1F89020C2F30722934265DB1F
:10B0A8000020FFF72FFF06B0BDE8F081616801EBD3
:10B0B8000011FFF743FE0130DBE7019A290102EB9B
:10B0C8000513D3F80CC00CEA0700B0F5001F23D015
:10B0D800B0F5800F38D0B0F5801F45D15868525868
:10B0E8009B68CDE902022122013B20F01F010B449D
:10B0F80023F01F038DF810200593207802A9FFF78D
:10B1080037FE00282DDA1E494FF4E8721D4811F069
:10B1180099FD4FF4E871A3E758689B685258013BC2
:10B1280020F01F010B4423F01F031CF0010FCDE991
:10B1380002028DF810800593DFD01149742211485E
:10B1480011F080FD74218BE758689B685258013BC9
:10B1580020F01F010B44CDE9020223F01F03022255
:10B16800C8E723780133237001358EE7C1F898309A
:10B17800C1F8A00001338DE700ED00E004180200DB
:10B1880031290200CF1F0200AAFF44004B9800207B
:10B198000000F0FF08B5024811F048F8FEE700BFCC
:10B1A8006F29020008B5024B1B689847002008BDAC
:10B1B800CC920020034B044A1860937843F00203B2
:10B1C80093707047CC9200200082002008B5064991
:10B1D800064821F00701C1F1005202F5E022FDF70F
:10B1E800DFFB002008BD00BF2BE70020D092002025
:10B1F80070B541690446867A0A4D59B1437ADB072E
:10B2080006D4342303FB0653DB6A1B689B68984704
:10B21800002363613420214606FB0050BDE87040DE
:10B2280015F0CDBBD08500203422024B02FB003044
:10B23800704700BFD08500203421827A064B01FB7D
:10B2480002331A6B93F82430801A1B3323F003035C
:10B25800B0FBF3F0704700BFD085002038B5342428
:10B26800827A064B04FB0233DB6AD3E901240C60C3
:10B278001568FFF7E1FF04FB005038BDD0850020BA
:10B2880008B5437A43B10B495A220B4811F0DAFC4E
:10B298005A21084811F0CDFC436833B105495B22B7
:10B2A800054811F0CFFC5B21F3E703824369C360D3
:10B2B80008BD00BF74290200CF1F02002DE9FF4717
:10B2C8000546684691461C46039115F074FCDDE975
:10B2D80000673DB95649EE22564811F0B3FCEE21FD
:10B2E800534813E005F11C08EFF3118A202383F378
:10B2F8001288BFF36F8F404610F0FEFA40B94E49EE
:10B3080088224C4811F09EFC88214B4811F091FC92
:10B31800404610F015FB6B8C002B56D02A8C9A42B5
:10B3280033D90022002328460EF088FB044660B378
:10B33800404610F0EFFA40B93F4940F231123D481B
:10B3480011F080FC40F23111DFE78AF31188BFF376
:10B358006F8F039D002D5AD032463B46684615F044
:10B368004EFC3421A27A354B204601FB0233DB6ABE
:10B3780003A91B681E68DDE90023B0476061002847
:10B3880039D12046FFF734FF30E06C8C4046631E0D
:10B398006B8410F0BFFA0028CED08AF31188BFF36F
:10B3A8006F8F95F824302A8C1B33121B2C6B23F0DB
:10B3B800030302FB0344214B214AEB1A9B1053431E
:10B3C800A37295F82430E372C3E7404610F0A2FA5E
:10B3D8000028B1D08AF31188BFF36F8F23464A46FD
:10B3E80028460EF02BFB04460028B2D10024204644
:10B3F80004B0BDE8F087039B9D4209D90C4940F28F
:10B4080045120C4811F01EFC40F2451168E76561D1
:10B41800012300212381039BE27A6160638204F1A6
:10B42800180015F085FC2046FFF72AFFDFE700BF6C
:10B4380074290200CF1F02001D200200D0850020C1
:10B44800C54EECC470B50C46054650B922494FF4B8
:10B45800D072224811F0F6FB4FF4D0711E4811F05B
:10B46800E8FB41B91C4940F2A1121C4811F0EAFB63
:10B4780040F2A111F2E7EFF31186202383F312883B
:10B48800BFF36F8F164810F037FA38B9154988227C
:10B49800124811F0D7FB88211248E0E7104810F055
:10B4A8004FFA002323606B6873B9C5E900440C4860
:10B4B80010F030FA58B90B4940F23112074811F030
:10B4C800C1FB40F23111E7E71C606C60EFE786F3DF
:10B4D8001188BFF36F8F70BD74290200CF1F02005F
:10B4E800DC9200201D20020070B5044650B91E49A8
:10B4F8001E4840F2AD1211F0A5FB40F2AD111A48FA
:10B5080011F097FBEFF31186202383F31288BFF322
:10B518006F8F174810F0F0F938B916498822134888
:10B5280011F090FB88211348EAE7114810F008FA57
:10B5380025682DB162682B689542236008BF636057
:10B548000B4810F0E7F940B90A4940F231120748B0
:10B5580011F078FB40F23111E5E786F31188BFF36B
:10B568006F8F284670BD00BF74290200CF1F0200EC
:10B57800DC9200201D20020070B5044698B13426E4
:10B58800104D2046037A6468013BDBB203724BB965
:10B59800C3604360837A06FB03539B6A73B1984781
:10B5A800002CEED170BD084908484FF4E37211F041
:10B5B80049FB4FF4E371044811F03BFBFFF718FE19
:10B5C800EEE700BFD085002074290200CF1F0200DB
:10B5D80008B550B9074908484FF4F87211F032FB22
:10B5E8004FF4F871034811F024FB027A0132027219
:10B5F80008BD00BF74290200CF1F020008B503462A
:10B6080050B90849084840F23B2211F01BFB40F2B0
:10B618003B21044811F00DFB18465B68002BFBD159
:10B6280008BD00BF74290200CF1F020070B50D4687
:10B63800044650B90E4940F246220E4811F002FB6A
:10B6480040F246210A4811F0F4FA41B9084940F29B
:10B658004722084811F0F6FA40F24721F2E7466817
:10B668001EB10846FFF7CAFF4660656070BD00BF9F
:10B6780074290200CF1F020038B505460C4651B99F
:10B688000B490C4840F2522211F0DCFA40F25221E8
:10B69800074811F0CEFA20B9BDE838400846FFF750
:10B6A80097BFFFF7ABFF2146FFF7C0FF284638BD1D
:10B6B80074290200CF1F020008B540B90A492B229D
:10B6C8000A4811F0BFFA2B21074811F0B2FA838813
:10B6D80033B105492C22054811F0B4FA2C21F3E7BF
:10B6E80083680B44036008BDA1290200CF1F020034
:10B6F80008B5034600689A68821A91420AD908492F
:10B70800084840F2551211F09DFA40F255110448CC
:10B7180011F08FFA9A88401A11441860998008BD70
:10B72800A1290200CF1F020008B5828803468A4279
:10B738000AD20849084840F2C31211F083FA40F2CD
:10B74800C311044811F075FA521A8280006808443F
:10B75800186008BDA1290200CF1F020008B50346E2
:10B768009A8800688A420AD20749084840F2CF12EC
:10B7780011F068FA40F2CF11034811F05AFA521A40
:10B7880001449A80196008BDA1290200CF1F020058
:10B79800F8B5858803680E4604465F1912F04AF921
:10B7A800B04208D2064907483E2211F04BFA3E2122
:10B7B800034811F03EFA3544A5803846F8BD00BF6D
:10B7C800A1290200CF1F020007B50DF107000BF0F9
:10B7D800E7F9114B98421CD14FF480620F4B104986
:10B7E800C3F8B8254FF40062C3F83C259DF807005C
:10B7F8000BF0C2F90B499DF807000BF0A9F90120DD
:10B808009DF8073098400BF09DF9002003B05DF8D3
:10B8180004FB6FF00B00F9E70000AD0B00A002403D
:10B828002CA0024028A10240052370B5144D154EE6
:10B838002C780134B4FBF3F303EB8303E41A14F01C
:10B84800BEF9114A137823B156F82430C01A0728D4
:10B8580013D90E4BD3F8141141B10021C3F81411B8
:10B86800D3F814312C700CB9012313702C7814F010
:10B87800A6F946F82400012070BD0020FCE700BFAF
:10B888004D980020E09200204C9800200050004085
:10B8980048B1054B054A1B68B3FBF2F35843044B08
:10B8A80043F0010318477047DC83002040420F0033
:10B8B800101602000B460121024AC2F81416002194
:10B8C800184700BF005000400149024811F082BAF1
:10B8D8003C180200F49200202DE9F047174B05466A
:10B8E800D3F830210C46072AD3F8343121D1023B52
:10B8F800032B02D8124AD35CDBB14FF001080026B3
:10B908004FF050290F4F0520C9F81886C7F814665C
:10B9180014F0D8F94046C7F8148614F0D3F9C7F8DC
:10B928001466C9F8186628462346BDE8F047002182
:10B9380018470022034BC3F81426F4E700F0072049
:10B94800182A0200005000401FB508B300230193D5
:10B9580003930123694611480293FDF7A9FA0028C9
:10B9680008DA0F493C220F4811F06CF93C210C48C9
:10B9780011F05FF9029B9B0706D009494422094848
:10B9880011F060F94421F2E7039B05B05DF804FB70
:10B998000248FDF711FB0028F7DAEEE7F4920020E1
:10B9A800E0290200CF1F020007B501AA14F06FF9C1
:10B9B80040B10A4916220A4811F044F916210748ED
:10B9C80011F037F9019B33B104491722044811F0EB
:10B9D80039F91721F3E703B05DF804FB1C2A0200CC
:10B9E800CF1F020008B5044814F06CFF00280CBFF4
:10B9F8006FF01200002008BDBC0F02000E4B40295A
:10BA080028BF402170B51D460C4C4618B04203F1C2
:10BA1800020304D1002305F81130074870BD0278ED
:10BA28001209A25C03F8022C10F8012B02F00F0295
:10BA3800A25C03F8012CE9E76C980020B42A020004
:10BA480030B503788BB0044607AD032B21D8DFE867
:10BA580003F0021A1C1E12492846FCF783FB0595C1
:10BA680063781E210493A3780E4A0393E3780E4863
:10BA780002932379019363790093A37910F0F6FB7D
:10BA880009480BB030BD0949E6E70949E4E7094927
:10BA9800E2E70A212846084A10F0E8FBDFE700BF82
:10BAA800682A0200912A02004E9800206F2A02009C
:10BAB800762A0200802A02008A2A02002DE9F34130
:10BAC8000446174698461E4DD5E8AF3FDA071BD502
:10BAD80030B945211B4811F0C1FD6FF0010014E099
:10BAE80001A911F02FFE18490246204615F038F931
:10BAF8000028F2D1D5E8AF3FC3F3C0061B0707D52E
:10BB08005721124811F0AAFD002002B0BDE8F081CB
:10BB1800A5F1D404072221464046B847062809D88B
:10BB280045210B4811F09AFD45F8D46CE671C4F82C
:10BB38000360E9E70723B0FBF3F0E071E4E700BF37
:10BB4800D4800020CC2A02007D2A0200F22A0200BA
:10BB58001B2B02002DE9F04188B0DDF838809C7974
:10BB68005D791E79DF7893F802C093F801E01B78BD
:10BB7800B8F1000F0ED0CDE90638CDE904CE134652
:10BB8800CDE90267CDE90045084A10F06FFB08B01F
:10BB9800BDE8F081CDE905E3CDE9037C1346CDE9A5
:10BBA8000156034A009410F061FBF0E7452B0200B0
:10BBB800692B020010B5FEF71DFB044620B10246B2
:10BBC8004521024811F04AFD204610BD8A2B02008B
:10BBD80070B504461E4615468CB0A2B129B10A4676
:10BBE80002A8042111F03BF802A900912B46224635
:10BBF800242103A8FFF7AEFF3146109A03A8FEF7E9
:10BC08006BF90CB070BD03462421044A03A810F058
:10BC18002DFB0028F0DA6FF01500F2E7B42B0200D4
:10BC280007B50B4B0B48DA79C2EBC202009200222F
:10BC38001146FFF7CDFF024630B14521064803B053
:10BC48005DF804EB11F00ABD03B05DF804FB00BF1A
:10BC5800008000207D2A0200BA2B020030B504467D
:10BC680015468DB092B129B10A4602A8042110F0F8
:10BC7800F6FF02A900912B462246242103A8FFF7CC
:10BC880069FF03A811F036FD0DB030BD034624212D
:10BC9800044A03A810F0EAFA0028F2DA6FF0150057
:10BCA800F2E700BFB42B020007B5009313460A461B
:10BCB80001460348FFF78CFF03B05DF804FB00BFA3
:10BCC8002B4A02000A4601460148FFF7C7BF00BFDA
:10BCD8002B4A020007B5009313460A46014603485B
:10BCE800FFF776FF03B05DF804FB00BF254A0200AA
:10BCF80007B5009313460A4601460348FFF768FF55
:10BD080003B05DF804FB00BF6F48020007B50022CE
:10BD18000346009103481146FFF75AFF03B05DF848
:10BD280004FB00BF1D4A020008B502480EF046FA9F
:10BD3800002008BD10820020F8B5184DD5E8AF3FA7
:10BD480013F0010F2E4627D015F8CD3CA5F1D407E6
:10BD580083B901F0C3FE044628B14521104811F00B
:10BD68007DFC2046F8BDFB7923B901F0C7FE0446E7
:10BD78000028F2D1D5E8AF3F5A0701D400F0A2FE5F
:10BD8800D6E8EF3F23F40062C6E8E12F0029F7D197
:10BD98001B0501D5FFF7C8FF0024E2E7D480002087
:10BDA800DA2B020007B5009313460A4601460348FA
:10BDB800FFF70EFF03B05DF804FB00BF984F0200C9
:10BDC8000A4601460148FFF749BF00BF984F0200E5
:10BDD80030B50024094D0A4B85B0284602930394D8
:10BDE8000EF062FA02AB284600934FF4E1620A2390
:10BDF80004490EF06FFA204605B030BDF88A0020DD
:10BE0800122C0200989F0020014601480EF064BBE6
:10BE1800F88A00200146014814F044BEF88A002040
:10BE2800037830B5012B13D0022B27D07BB90A46F3
:10BE3800184B03F1100453F8045BA34242F8045B67
:10BE4800F9D11B78137043884B731B0A8B7330BD71
:10BE58000A46104B03F1100453F8045BA34242F85E
:10BE6800045BF9D11B7813704368C3F307224B7343
:10BE78001B0CCB731B0A8A730B74E8E700F11003E1
:10BE880050F8042B984241F8042BF9D103780B7031
:10BE9800DDE700BF1B2C020010B504460FF010F9B7
:10BEA800044B1B680BB120469847BDE810400FF0C3
:10BEB80055B900BF1493002038B50546022D104629
:10BEC80019460CD0082D16D0202D14D00C490D4839
:10BED800642210F0B7FE6421094810F0AAFE0A484F
:10BEE80011F08AFD044620B101210C30FFF7E4FB74
:10BEF8002576204638BD02460B460448F0E700BFC9
:10BF08002C2C0200CF1F0200A0860020D085002024
:10BF18000F2810B50ED80D280ED90B4811F06CFD5E
:10BF2800044628B101210C30FFF7C6FB0223237613
:10BF3800204610BD1328F0D009B10448EEE70220CE
:10BF4800BDE81040FFF7B8BF3C8700206C86002092
:10BF580038B50B6805460C4643B90D490D48F12222
:10BF680010F070FEF1210A4810F063FE4A68DA60AA
:10BF78000B684A895A820868FFF7FEFA20461022A1
:10BF8800002114F0D5FE2846BDE8384011F068BEFF
:10BF98002C2C0200CF1F02002DE9F84305460C4661
:10BFA8001F46164642B92449CD22244810F04AFEBD
:10BFB800CD21214810F03DFE30B91F49CE221F483F
:10BFC80010F040FECE21F4E701F10C09484611F0CB
:10BFD8002DFD30B91849D222184810F033FED2216D
:10BFE800E7E7204611F05CFE804630B11249D422C2
:10BFF800124810F027FED421DBE705F10C01484672
:10C0080011F0FEFC484611F011FD012310FA86F0EC
:10C0180068826B72314648462E82FFF785FBE368DB
:10C0280028467B60638AC4F80C807B81A4F8128060
:10C038003C60BDE8F88300BF2C2C0200CF1F020033
:10C04800C36857211A78014811F008BB6A2C02000E
:10C0580038B505461446084602EBC3039C4202D194
:10C068006FF05E000FE0224612F8081BA9420FD1BC
:10C07800028A6378934207D906482B46452111F076
:10C08800EDFA6FF0150038BD636898470020FAE7AD
:10C098001446E3E7972C020070B5C6683378B6F803
:10C0A800014083B90F21204603F03EF8F378054696
:10C0B80050B90A4A118831B96FEA04506FEA105032
:10C0C8001080074A137070BD0373012102F076FFD8
:10C0D8002846BDE8704002F031BF00BF2898002014
:10C0E800ED98002070B5C3681D78B5B9B3F8016044
:10C0F8000F21304603F018F8044630B93246BDE83F
:10C1080070404521054811F0A9BA294602F056FFAA
:10C118002046BDE8704002F011BF70BDBE2C020081
:10C1280010B5C3680121B3F80140204602F0FCFFB6
:10C1380030B92246BDE810404521034811F08EBAB7
:10C14800BDE8104002F0FABEE92C020010B5C36841
:10C1580001211C88204602F0E7FF30B92246BDE8DD
:10C1680010404521034811F079BABDE8104002F0AB
:10C17800E5BE00BFE92C0200012108B50C30FFF72D
:10C18800EDFABDE8084002784521014811F066BA89
:10C19800122D0200014608B50748FFF753F9074971
:10C1A800074814F07FFC021E05DABDE80840452167
:10C1B800044811F053BA08BD4C8100203082002099
:10C1C800A08B0020392D020010B5084C014606222C
:10C1D80094F86F0003F058FB38B994F86F00052203
:10C1E800BDE81040024903F04FBB10BD008000209D
:10C1F8004E2A020073B505460C46FFF729FF5F304B
:10C208000BD1268AE0683146FFF7F8FB33460090E9
:10C218002A465721024811F021FA02B070BD00BF2A
:10C228005B2D020070B53B48FFF75EF90446002815
:10C238006FD0017E022944D0082966D1028A032AD8
:10C2480004D84521344811F009FA11E004210C30D2
:10C25800FFF784FAFF22438806886276228AC6F3AB
:10C268000B009342A08307D045212C4811F0F6F922
:10C278002046FFF781F913E00F2102F055FF05462C
:10C2880018B94521A28B2648DDE702F08BFF21462D
:10C298006076320B284602F0E1FC284602F04EFE9A
:10C2A800204BD3F84C31002B33D01F491F4814F0D2
:10C2B800F9FB021E2DDABDE8704045211C4811F03B
:10C2C800CDB9028A012A02D845211A48BBE70C30A9
:10C2D800FFF744FA0546007811F003FD10F0020656
:10C2E8000CD140F6CE321449144810F0ABFC86F35A
:10C2F8001188BFF36F8F0323184602DF06232146F8
:10C308000F4A2878FFF776FFB2E70A460D4845211D
:10C3180099E770BD4C810020822D0200A82D0200F3
:10C32800D12D02000080002030820020A08B002048
:10C33800392D0200F82D0200192E0200CF1F02002D
:10C34800E81802004D2E020010B5012104460C30F9
:10C35800FFF704FA2146BDE810400823014A007897
:10C36800FFF748BF1819020073B5044601210C30C5
:10C37800FFF7F4F90578002321462846094AFFF714
:10C3880067FE5F300BD1268AE0683146FFF736FB3F
:10C39800334600902A465721034811F05FF902B04E
:10C3A80070BD00BF58190200662E020070B5C5683E
:10C3B8000121B5F80160304602F0B6FE044630B9F6
:10C3C8003246BDE8704045210B4811F047B92B783B
:10C3D8003BB9D5F80330C0F89530D5F80730C0F828
:10C3E8009930201D4FF4803111F08DFC2046BDE8B6
:10C3F800704002F0A3BD00BFE92C02003C2870B5D4
:10C4080004461AD101F03CFD6FF08001103011F0A4
:10C4180085FC0020FFF7D8FE054628B9BDE8704026
:10C4280045210A4811F01AB90473002102F0C6FD2B
:10C438002846BDE8704002F081BD0246BDE8704064
:10C448005721034B034811F009B900BF9D2E020084
:10C4580041460200C32E02002DE9F04788461746E0
:10C468000646002800F08B800023DFF81891D9E8F1
:10C47800EF4FC9E8E23F002AF9D134B93246BDE8A6
:10C48800F0474521404811F0E9B82046FEF7D4FEB0
:10C498004FF00C0A3D4D0AFB00504388B3421DD0B3
:10C4A8002046FEF7C9FE0AFB005032464388452164
:10C4B800374811F0D3F8D9E8EF3FC9E8E24F002A2E
:10C4C800F9D1002B5BD03349334840F6841210F081
:10C4D800B9FB40F684112F4810F0ABFBA7420FD0F0
:10C4E8002046FEF7CDFE022304F10C06012130465A
:10C4F8002376FFF7E1F830463A8AF96811F0A2FA94
:10C508002046FEF799FE0C2606FB00504368ABB1A7
:10C51800B8F1000F12D12046FEF78EFE012106FB6E
:10C5280000504268D2E90003127A03F01F06B140B6
:10C538005B09F2B100EB830011F0E5FB2046FEF742
:10C548007BFE0C2606FB005083686BB12046FEF785
:10C5580073FE704305F800802046FEF76DFE06FB6B
:10C568000055A8680DF0E2FA2046BDE8F047FFF74D
:10C5780003B8C94300EB830011F0D0FBDEE7BDE848
:10C58800F08700BF48810020E42E020018930020A5
:10C59800112F0200192E0200CF1F020073B5C568C3
:10C5A8000121B5F80160304602F0BEFD044638B9F5
:10C5B80032464521384802B0BDE8704011F04EB807
:10C5C8002B78061D1A2B19D1C378012B4BD14FF4A8
:10C5D8008041304611F097FB42040FD4D4F88830DC
:10C5E80069460093D4F890302046019303F06AFC22
:10C5F800204602B0BDE8704002F0A0BC2B7893BB87
:10C6080040F67A41B5F80330A4F886309AB2B5F806
:10C618000530A4F88C30B5F80730A4F88E30931F95
:10C628009BB28B4203D957211C4811F017F8B4F874
:10C638008C20B2F5FA7F03D35721194811F00EF870
:10C6480040F67641B4F88E20A2F10A039BB28B42E1
:10C6580003D95721134811F001F86FF4805130467F
:10C6680011F05CFB14E0D6E8AF3FDB04F5D52B787E
:10C67800202BF2D194F89430002BEED0013B84F8B3
:10C6880094304FF42032002304F140000DF090FF65
:10C69800204602F061FFABE7E92C0200492F0200B7
:10C6A800762F0200A22F020001232DE9F347C76865
:10C6B800018A3A7803EB82038B4262D900913348AE
:10C6C800452110F0CBFF02B0BDE8F0874246452176
:10C6D800504610F0C3FF01353B789D42F3DA07EB73
:10C6E8008503B3F801800F214046B3F8036002F0D8
:10C6F8001BFD04460028E9D000F1C008204616B901
:10C7080002F01CFCE7E702F03DFA0DF00FFA63694E
:10C7180073B945211E4810F0A1FF1E4940F25D2261
:10C728001D4810F08FFA40F25D211A4810F081FA86
:10C73800A1691A688B42626108BFA261C3F80090C0
:10C74800226A7AB9C4E90733D8E8AF3F013EB6B2E6
:10C758005BB910494FF419720F4810F073FA4FF48F
:10C768001971E2E713602362EEE7D8E8EF3F013B77
:10C77800C8E8E23F002AF8D10021204602F00EFA6C
:10C78800BCE70025DFF814A0A946A5E7D32F0200CF
:10C7980023300200192E0200CF1F020002300200CF
:10C7A800054BD3E8AF2F02F00902D3E8EF1FC3E827
:10C7B800E02F0028F9D17047D480002010B5C1E9D6
:10C7C80000239DF808300C460B72FEF735FD0C224D
:10C7D800024B02FB00335C6010BD00BF18930020C1
:10C7E8002DE9F0474FF0FF3206464FF0FF33184867
:10C7F800884611F001F9044638B300F10C0701210D
:10C808003846FEF759FF012320462376FEF714FD2C
:10C818004FF00C090F4D4FF0000A09FB00504680FD
:10C828002046FEF709FD09FB0050C0F808A0204685
:10C83800FEF702FD09FB005503213846C5F804A0A0
:10C84800FEF7A6FF068080F802802046BDE8F08744
:10C85800088700201893002029289ABF014B185CEC
:10C86800092070473A35020070B5C3680F21B3F844
:10C8780001601D78304602F057FC044630B9324654
:10C88800BDE870404521164810F0E8BE65B128465D
:10C89800FFF7E2FF29460246204602F03FFF204606
:10C8A800BDE8704002F04ABB8378012BEFD107F056
:10C8B800BFF9204611F0FDF90028E8D10520FFF75F
:10C8C800CBFF05210246204602F028FF45210548F6
:10C8D80010F0C4FE0521204602F0DEFCDFE700BFB1
:10C8E800BE2C02003F300200F8B5C6680F21B6F82A
:10C8F80001703578384602F017FC044630B93A46DC
:10C90800BDE8F84045211E4810F0A8BE45B12846AC
:10C91800FFF7A2FF29460246204602F0FFFE07E085
:10C92800F378C27A9A4208D15721164810F096FE39
:10C938002046BDE8F84002F001BB8278C372012AA4
:10C9480005D00020FFF788FF00210246E4E70BB17D
:10C9580007F06EF9204611F0ACF90028F1D1052056
:10C96800FFF77AFF05210246204602F0D7FE45214F
:10C97800054810F073FE0521204602F08DFCD7E72C
:10C98800BE2C02006A3002003F30020070B5064635
:10C9980090B00B4D01AC0FCD0FC40FCD0FC40FCD10
:10C9A8000FC495E8070084E807000E2E9DBF10AB62
:10C9B80003EB860656F83C0C024810B070BD00BF69
:10C9C8004C1502009E300200034B0146D3F870015B
:10C9D80082689268104700BF008000202DE9F84364
:10C9E800044600F10C06304611F020F8B4F8108027
:10C9F8000546B8F1010F09D842464521184810F0FC
:10CA08002DFE2046BDE8F843FEF7B6BD30460221AC
:10CA1800FEF7A4FE0746007811F063F910F001094B
:10CA280006460CD140F6EE720E490F4810F00AF98E
:10CA380089F31188BFF36F8F0323184602DF05239C
:10CA480021460A4A3878FFF7D5FBB307D9D5636979
:10CA5800A4F8108013FA85F5E560BDE8F88300BFF7
:10CA6800F82D0200192E0200CF1F0200C018020084
:10CA780038B50C460EF024FB227E022A05D0082A7F
:10CA880014D12046FFF786FB0BE0E368187811F015
:10CA980028F9C207054602D52046FFF79FFFAB07D6
:10CAA800EFD400240EF05AFB204638BD4521044837
:10CAB80010F0D4FD2046FEF75FFD6FF01504F1E796
:10CAC800A6300200F7B5234C0421234811F01BF9C6
:10CAD800224DE279224B2046012A88BF1D46FEF7E7
:10CAE800AFFF2A46034649211E4810F0B7FD2646E7
:10CAF80001251D4FE37907369D4220DB94F87050DD
:10CB08002846FFF743FFB4F8763002460193B4F89D
:10CB180072304921009315482B4610F09FFD94F878
:10CB280071502846FFF732FFB4F87430024600937C
:10CB380049212B460E4810F091FD03B0F0BD304658
:10CB4800FEF77EFF2A4603464921384610F086FD47
:10CB58000135CFE700800020D48000204146020044
:10CB6800BF300200C3300200D7300200ED300200AF
:10CB780030310200004870475C31020001480DF076
:10CB88001DBB00BF2082002038B505460C4619B9E8
:10CB9800FFF726FE0446D0B140F635439D420ED13C
:10CBA8002046FFF711FF054678B10246452109489E
:10CBB80010F054FD2046FEF7DFFC284638BD21461C
:10CBC800054813F0F1FEFFF7D9FF0025F5E76FF0F0
:10CBD8006805F2E76731020054810020F8B50521A5
:10CBE800054640F63540FFF7FBFD044658B9FB22E1
:10CBF8001749184810F026F884F31188BFF36F8F8F
:10CC08000323184602DF04F10C0701213846FEF71A
:10CC1800BFFD0126042106703846FEF7B9FD0580E0
:10CC280000258670C570214640F63540FFF7ACFFF9
:10CC380060B140F205120649064810F003F885F382
:10CC48001188BFF36F8F0323184602DFF8BD00BFBA
:10CC5800192E0200CF1F0200F8B50446868B477EC6
:10CC6800807AFEF7E1FA6169054649B1637ADA0725
:10CC780004D4C36A20461B689B68984700236361F5
:10CC88002146284613F09BFEA37E23BB124B93F844
:10CC98008A309B061FD5384602F0EEFE044630B9AE
:10CCA8003A46BDE8F84057210C4810F0D7BC437B02
:10CCB800073B012B08D90A48572110F0CFFC204622
:10CCC800BDE8F84002F03AB902F038F93046BDE85C
:10CCD800F840FFF783BFF8BD008000208E310200C6
:10CCE800BC310200F0B5C56801212F8887B0BCB2FD
:10CCF800204602F019FA064638B922464521254849
:10CD080007B0BDE8F04010F0A9BC02ACD5F802208D
:10CD1800D5F8063001946989009112F016FC38B3F1
:10CD2800122142F21A00FFF75BFD054640B9452182
:10CD3800194810F093FC304602F000F907B0F0BD36
:10CD480012210C30FEF724FD0346224623F8027B0D
:10CD580006AF144603CCBC4218605960224603F162
:10CD68000803F6D1294642F21A00FFF70DFFE2E761
:10CD7800022142F21B00FFF733FD04460028D6D0FB
:10CD880002210C30FEF704FD2146078042F21B0009
:10CD9800EBE700BFE92C0200ED31020070B5064652
:10CDA8000D4642F221000321FFF71AFD044628B977
:10CDB800BDE870404521084810F050BC03210C30F4
:10CDC800FEF7E6FC068085702146BDE8704042F219
:10CDD8002100FFF7D9BE00BF0932020073B5C3684E
:10CDE800D9789A781E8842EA0122ADF8002059794C
:10CDF8001A79B4B242EA0122ADF80220D9799A79B7
:10CE0800204642EA0122ADF804201A7A5B7A012111
:10CE180042EA0323ADF8063002F086F9054650B918
:10CE280045211C48224610F019FC02212046FFF734
:10CE3800B5FF02B070BD694602F0E4FB38B91E21A7
:10CE48002046FFF7ABFF284602F078F8F1E70E21FD
:10CE580042F22000FFF7C4FC04460028F3D00E215C
:10CE68000C30FEF795FC00230680C0F80A30BDF8A8
:10CE7800003021464380BDF802308380BDF804307D
:10CE8800C380BDF80630038142F22000FFF77CFE24
:10CE9800D9E700BFE92C020038B502460B46294DF8
:10CEA800D5F8541109B9002038BD05F598700CF073
:10CEB80093FE0028F7D10022002305F5AA700CF094
:10CEC800BDFD044660B940F6DD321F491F480FF02A
:10CED800B9FE84F31188BFF36F8F0323184602DF6E
:10CEE800D5F8483153B14521194810F0B7FBD5F8AA
:10CEF8004801FEF741FB0023C5F848312046FEF7FC
:10CF080067FBC5F848012046FFF75EFD0246B8B149
:10CF18004521104810F0A2FB0F480CF007FE2046F0
:10CF2800FEF78AF90C220D4B1F2102FB0030224626
:10CF38004088FFF791FA2046FEF71EFBFFF71EFE1A
:10CF48000120B1E700800020192E0200CF1F020047
:10CF58002832020067310200308100201893002037
:10CF68002DE9F04F8BB015460C46039031B9FFF709
:10CF780037FC044698B96FF068007BE0887AFEF7C2
:10CF880053F9434B83420AD0424943484FF4C37292
:10CF98000FF058FE4FF4C3713E480FF04AFE04AF3D
:10CFA80001220021384613F018FD2046FEF744F907
:10CFB8000C23DFF8E89003FB009087602046FEF71B
:10CFC80007FB0146364813F0EFFCFFF7D7FD13F0D7
:10CFD80053FF344B1A58344B9A421DD1DFF8B4A092
:10CFE800DFF8B4B02E4813F0F4FC002180464FF46B
:10CFF800A020FFF751FF064660B94FF4D87251469A
:10D0080058460FF01FFE86F31188BFF36F8F032376
:10D01800184602DF4445E5D14FF4A02200233846E4
:10D028000CF0DAFD68B14FF4DB721A491A480FF0B8
:10D0380009FE002383F31188BFF36F8F032318467B
:10D0480002DF2046FEF7F8F80C23584319F8007061
:10D058009FB1164B5721039A154800933B46093F49
:10D0680010F0FCFAFFB22046FEF786FA092F0CD81A
:10D07800104BD8570BB0BDE8F08F15B12C600020CD
:10D08800F8E72046FEF778FAF9E76FF00400F1E7D1
:10D0980008870020192E0200CF1F020018930020D5
:10D0A8005481002008000000E09000204146020062
:10D0B8004832020030350200F7B5144B054693F9A3
:10D0C8009B300C46002B1DDA14B9204603B0F0BD86
:10D0D800082C4FF0000142F2180001AA264628BF8A
:10D0E8000826FFF73DFF0028F0D1019F3246F96876
:10D0F8002846013113F0F5FD3846FEF73DFA354470
:10D10800A41BE1E76FF08500E0E700BF0080002086
:10D1180073B506460D4642F22F00002101AAFFF71B
:10D128001FFF044630B14521124810F097FA2046F7
:10D1380002B070BD0198C368B3F801203280B3F81B
:10D1480003302B80FEF718FA3288A2F11B03E02B7C
:10D1580003D95721084810F081FA44F248112A8867
:10D16800A2F5A4739BB28B42E1D95721034810F072
:10D1780075FADCE76C32020091320200BB32020021
:10D1880010B5FBF701F8034B1B6813B1BDE810405D
:10D19800184710BD9093002073B52C4D0646D5F85E
:10D1A800700113F08FFB40B94521294810F056FA59
:10D1B8006FF01204204602B070BD6FF0020105F155
:10D1C800D40010F0ABFD012110F09DFDC30739D448
:10D1D800FEF7F0FC04460028ECD11E4B1E6001222D
:10D1E80005F59870114613F0F8FB05F5AA7013F0D1
:10D1F800CEFB19480DF058F86FF0070340F6980277
:10D208001649154800940DF065F81549124813F0B1
:10D218005FFCD5F87001134983681B68984704467A
:10D2280028B102464521104810F018FAC2E726B97D
:10D2380002B0BDE87040FAF7A7BF05F1C4000CF0D2
:10D24800BDFFB7E76FF07704B4E700BF00800020A8
:10D258008B34020090930020A08B0020A0A6002011
:10D26800A834020079CA0000B13402002DE9FF4752
:10D278000478054654B16249624840F23F520FF0C3
:10D28800E1FC40F23F515E480FF0D3FC5E4BB0F832
:10D298000180198848F47042914205BF1C805B4B9D
:10D2A80027461F7800F01CFAEB782E1D012B08BFCB
:10D2B800574B304608BF93F86F4010F0C5FC314615
:10D2C800F0B14FF0010A02A810F0B3FCD5F8113004
:10D2D800CDF80130B5F81530ADF80530EB78012BF5
:10D2E80025D03046FEF7ACFB45210246494810F0F0
:10D2F800B5F91321404610F059FD04B0BDE8F08798
:10D30800204610F075FE0346006895F804A00290C8
:10D318009A889B796868ADF80C208DF80E30B28831
:10D32800B3790090ADF804208DF80630D6E702A84E
:10D33800FEF74AFFEB780446012B0AD100F0A0FD66
:10D3480081466FF08001103010F0E8FC484610F07C
:10D3580069FF002CC5D02346B5F8012023F8702BAF
:10D368009DF80E200298BDF80C1020679A710022D3
:10D378009980B5F81730A4F88630B5F81930A4F8B4
:10D388008C30B5F81B30A4F88E30EB782273012B63
:10D39800E37024D18DF800A0BDF804209DF8063074
:10D3A8000098A4F87B2084F87D30C4F8770000F05A
:10D3B80067FD237A164AC3EBC3039918D358C4F8F8
:10D3C8007E308B88A4F882308B7984F88430D2E957
:10D3D800381303F03F03194301D000F00BFF072176
:10D3E800204601F0EBFD27B101212046277301F00B
:10D3F800E5FD204601F040FF204601F09FFD7CE757
:10D40800192E0200CF1F020028980020ED98002056
:10D4180000800020D234020000B5C36889B01878B3
:10D4280020B109B05DF804EBFEF7E8BFB3F80120BE
:10D438008DF80000ADF80120DA788DF80320B3F8F4
:10D448000B20ADF81720B3F80D20ADF81920B3F86C
:10D458000F20ADF81B205A7C8DF81D2058680190CC
:10D468001A899B7AADF808208DF80A30084B68466F
:10D478001A689B88CDF80B20ADF80F30CDF8112035
:10D48800ADF81530FFF7F2FE09B05DF804FB00BFF8
:10D49800622A020070B5044603210C30FEF75EF9DB
:10D4A800E3680578197840F63543B0F801009842EA
:10D4B80007D1BDE870400A46084B5721084810F0CC
:10D4C800CDB82246FEF7C8FF35B106480CF02EFB52
:10D4D800BDE87040FFF752BB70BD00BF4146020077
:10D4E800F33402003081002038B5042104460C30A2
:10D4F800FEF734F94578017822464088FEF7ACFFFC
:10D5080035B104480CF012FBBDE83840FFF736BBD4
:10D5180038BD00BF30810020F8B506460024094D0B
:10D52800EF79E3B29F4202D86FF0010007E0294685
:10D53800304610F0CCFC0735631C08B12046F8BD16
:10D548001C46EEE70080002037B504460D46B9B109
:10D558002846164910F0BBFC90B929461448C4EB7C
:10D56800C404204410F0BBFC124810F0BFFC430771
:10D5780003D5FEF7D9FB10F0FEFA002003B030BD4A
:10D58800684610F048FB0028F8D16846FFF7C4FF4A
:10D598000028F5DA064BC4EBC4006946184410F0BD
:10D5A8009EFC002DE0D001462846DBE7552A020004
:10D5B80000800020D480002070B5194E0622314624
:10D5C800054613F0BDFB28B3062142F20500FFF71C
:10D5D80007F9044600B3062229460C3010F032FA47
:10D5E8002146002242F20500FFF7BAFC044640B18A
:10D5F80010F10D0F03D157210A4810F02FF82046DB
:10D6080070BD33462A6843F86929AA88B280012286
:10D6180083F868200024F2E76FF06804EFE700BFA2
:10D62800698000206B3602002DE9F04104460E4661
:10D6380086B051B9284940F2BA3228480FF002FBA7
:10D6480040F2BA3124480FF0F4FA0D6845B922497E
:10D6580040F2BB3221480FF0F5FA40F2BB31F1E756
:10D6680040B91D494FF46F721C480FF0EBFA4FF4A4
:10D678006F71E7E72B7A5A0708D5174940F2BE328F
:10D6880016480FF0DFFA40F2BE31DBE7D1F804802C
:10D69800B8F1000F1CD1037A5B0719D5411C681C2F
:10D6A80010F015FC2A35162241460746684613F045
:10D6B8003FFB10226946284613F042FB30B1102286
:10D6C800284604F12A0113F03BFB00B107B174604E
:10D6D80006B0BDE8F08100BF7F360200CF1F020010
:10D6E800084BD3E8EF2F22F48061C3E8E01F00283D
:10D6F800F7D1530504D500220220034906F08ABB5E
:10D70800704700BFD480002057E00100002307B510
:10D718000549CDE900036A46022006F07BFB019823
:10D7280003B05DF804FB00BF31D60000F7B505462D
:10D7380070B14D4C94F8222194F823310AB19A42E1
:10D7480008D2013384F823312B7A43F004032B7277
:10D7580003B0F0BD00210222084602F095F8064603
:10D7680088B1D434D4E8EF3F43F48063C4E8E23F9F
:10D77800002AF7D12B7A43F001032B7203B0BDE8DE
:10D78800F04001F0DBBB0146384800F073FB94F829
:10D79800233143B1304610F0E8FB20B1572134481B
:10D7A8000FF05CFF1CE094F8232194F822319A4290
:10D7B80020D157212F480FF051FF002242F22900B3
:10D7C8001146FFF7CDFB10B145212B48E8E794F847
:10D7D8002331013384F823312B7A43F004032B726D
:10D7E800012010F0C2FB0021244803B0BDE8F0403E
:10D7F80000F040BB2A466F1C394612F82A0B10F07D
:10D8080078FB064610B145211D48C9E794F8233135
:10D81800013384F823312B7A43F004032B7294F8F4
:10D82800A7305B0702D457211648B9E7394668463E
:10D8380010F055FB0123082142F24E008DF8073005
:10D84800FEF7CEFF044660B1082269460C3010F09E
:10D85800F9F83246214642F24E00FFF781FB0028D4
:10D86800BED0452108489BE700800020C9DF0100A1
:10D87800AD360200D73602000D370200A3DF0100E3
:10D888003237020057370200863702002DE9F0418F
:10D89800054698B3444C94F8222194F82331D2B128
:10D8A8000132934223DC00210222084601F0ECFFFA
:10D8B800064628B3D434D4E8EF3F43F48063C4E881
:10D8C800E23F002AF7D12B7A43F002032B72BDE81E
:10D8D800F04101F033BB53B93449354840F2864230
:10D8E8000FF0B0F940F2864130480FF0A2F9013B41
:10D8F80084F823312B7A23F004032B72BDE8F081DE
:10D9080001462C4800F0B6FA304610F02EFB0646C9
:10D9180080B10246452128480FF0A0FE94F8233133
:10D9280013B1012010F021FBBDE8F041002123488C
:10D9380000F0A0BA94F8233194F822219A420CD22C
:10D94800013B84F823312B7A024623F0040302209A
:10D958001B492B7206F05EFAE0E7072142F2280025
:10D96800FEF73EFF05F10108074620B94521154895
:10D978000FF074FED2E707210C30FDF709FF41468E
:10D9880010F0ADFA3246394642F22800FFF7E8FABD
:10D998000028EBD194F82331013B84F823312B7A0A
:10D9A80023F004032B72B9E7008000207F360200C1
:10D9B800CF1F0200C9DF0100A6370200A3DF010064
:10D9C8005DDF0100D837020070B50446A9B9B8B1C7
:10D9D8001E4910F07CFA98B92046FFF79DFD0028F3
:10D9E8002EDA2378012B04D1A37903F0C003C02BCE
:10D9F80006D0452116480FF031FE6FF0150070BDB6
:10DA0800144DEB79012B1ED005F1D40010F06EFAFD
:10DA1800C30707D4002CF0D020460C4910F057FA61
:10DA28000028EAD1EE792146731C3046EB71FFF7E6
:10DA38008BFD08B93046E2E7EB79013BEB71DEE795
:10DA48006FF07700DBE76FF00B00D8E7552A02008C
:10DA580002380200008000202DE9F341044638B95D
:10DA680057211A480FF0FAFD002002B0BDE8F081F6
:10DA7800002141F2090001AAFFF772FA054610B128
:10DA880057211348EEE7019E0622D6F80C8011496B
:10DA980008F10107384613F053F928B10622384631
:10DAA8000D4913F04DF918B93046FDF765FDDBE770
:10DAB800D8F801303046C4F80130BB882570A4F886
:10DAC8000530FDF759FD0120CFE700BF35380200CA
:10DAD80053380200622A02005C2A020007B5684631
